:020000040800F2
:1000000000500020894F0008414B0008434B000876
:10001000454B0008474B0008494B00080000000012
:10002000000000000000000000000000313A00085D
:100030004B4B000800000000D13A00084D4B00086F
:10004000D14F0008D14F0008D14F0008D14F000810
:10005000D14F0008D14F0008D14F0008D14F000800
:10006000D14F0008D14F0008D14F0008D14F0008F0
:10007000D14F0008D14F0008D14F0008D14F0008E0
:10008000D14F0008D14F0008D14F0008D14F0008D0
:10009000D14F0008D14F0008D14F0008D14F0008C0
:1000A000D14F0008D14F0008D14F0008D14F0008B0
:1000B000D14F0008D14F0008D14F0008D14F0008A0
:1000C000D14F0008D14F0008D14F0008D14F000890
:1000D000D14F0008D14F0008D14F0008D14F000880
:1000E000D14F0008D14F0008D14F00080000000098
:1000F0000000000000000000000000000000000000
:0C01000000000000000000005FF808F1A3
:1001100010B5054C237833B9044B13B10448AFF341
:1001200000800123237010BD780000200000000033
:10013000B862000808B5034B1BB103490348AFF38D
:10014000008008BD000000007C000020B8620008AC
:1001500081F0004102E000BF83F0004330B54FEA78
:1001600041044FEA430594EA050F08BF90EA020FE5
:100170001FBF54EA000C55EA020C7FEA645C7FEA78
:10018000655C00F0E2804FEA5454D4EB5555B8BF9B
:100190006D420CDD2C4480EA020281EA030382EA0C
:1001A000000083EA010180EA020281EA0303362D9E
:1001B00088BF30BD11F0004F4FEA01314FF4801C71
:1001C0004CEA113102D0404261EB410113F0004F83
:1001D0004FEA03334CEA133302D0524263EB43033A
:1001E00094EA050F00F0A780A4F10104D5F1200ED8
:1001F0000DDB02FA0EFC22FA05F2801841F1000133
:1002000003FA0EF2801843FA05F359410EE0A5F106
:1002100020050EF1200E012A03FA0EFC28BF4CF037
:10022000020C43FA05F3C01851EBE37101F00045ED
:1002300007D54FF0000EDCF1000C7EEB00006EEBFA
:100240000101B1F5801F1BD3B1F5001F0CD3490884
:100250005FEA30004FEA3C0C04F101044FEA4452DB
:1002600012F5800F80F09A80BCF1004F08BF5FEA62
:10027000500C50F1000041EB045141EA050130BD42
:100280005FEA4C0C404141EB010111F4801FA4F1E5
:100290000104E9D191F0000F04BF01460020B1FA3A
:1002A00081F308BF2033A3F10B03B3F120020CDA72
:1002B0000C3208DD02F1140CC2F10C0201FA0CF050
:1002C00021FA02F10CE002F11402D8BFC2F1200CB5
:1002D00001FA02F120FA0CFCDCBF41EA0C0190406B
:1002E000E41AA2BF01EB0451294330BD6FEA0404B4
:1002F0001F3C1CDA0C340EDC04F11404C4F120029F
:1003000020FA04F001FA02F340EA030021FA04F3B0
:1003100045EA030130BDC4F10C04C4F1200220FA07
:1003200002F001FA04F340EA0300294630BD21FA45
:1003300004F0294630BD94F0000F83F4801306BF0B
:1003400081F480110134013D4EE77FEA645C18BFFF
:100350007FEA655C29D094EA050F08BF90EA020F96
:1003600005D054EA000C04BF1946104630BD91EA8E
:10037000030F1EBF0021002030BD5FEA545C05D191
:100380004000494128BF41F0004130BD14F58004D0
:100390003CBF01F5801130BD01F0004545F0FE4144
:1003A00041F470014FF0000030BD7FEA645C1ABF79
:1003B000194610467FEA655C1CBF0B46024650EAB0
:1003C000013406BF52EA033591EA030F41F40021DC
:1003D00030BD00BF90F0000F04BF0021704730B562
:1003E0004FF4806404F132044FF000054FF0000137
:1003F00050E700BF90F0000F04BF0021704730B5F8
:100400004FF4806404F1320410F0004548BF4042CC
:100410004FF000013EE700BF42004FEAE2014FEA21
:1004200031014FEA02701FBF12F07F4393F07F4FFC
:1004300081F06051704732F07F4208BF704793F0FF
:100440007F4F04BF41F40021704730B54FF4607412
:1004500001F0004521F000411CE700BF50EA010215
:1004600008BF704730B54FF000050AE050EA0102BE
:1004700008BF704730B511F0004502D5404261EB2E
:1004800041014FF4806404F132045FEA915C3FF46F
:10049000D8AE4FF003025FEADC0C18BF03325FEA0C
:1004A000DC0C18BF033202EBDC02C2F1200300FABD
:1004B00003FC20FA02F001FA03FE40EA0E0021FAE2
:1004C00002F11444BDE600BF70B54FF0FF0C4CF4D0
:1004D000E06C1CEA11541DBF1CEA135594EA0C0F82
:1004E00095EA0C0F00F0DEF82C4481EA030621EABD
:1004F0004C5123EA4C5350EA013518BF52EA0335F8
:1005000041F4801143F4801338D0A0FB02CE4FF0A9
:100510000005E1FB02E506F00042E0FB03E54FF0D9
:100520000006E1FB03569CF0000F18BF4EF0010ED1
:10053000A4F1FF04B6F5007F64F5407404D25FEACD
:100540004E0E6D4146EB060642EAC62141EA555180
:100550004FEAC52040EA5E504FEACE2EB4F1FD0CC2
:1005600088BFBCF5E06F1ED8BEF1004F08BF5FEA40
:10057000500E50F1000041EB045170BD06F00046F2
:1005800046EA010140EA020081EA0301B4EB5C049F
:10059000C2BFD4EB0C0541EA045170BD41F4801197
:1005A0004FF0000E013C00F3AB8014F1360FDEBFBC
:1005B000002001F0004170BDC4F10004203C35DA98
:1005C0000C341BDC04F11404C4F1200500FA05F31B
:1005D00020FA04F001FA05F240EA020001F00042BC
:1005E00021F0004110EBD37021FA04F642EB060132
:1005F0005EEA430E08BF20EAD37070BDC4F10C045C
:10060000C4F1200500FA04F320FA05F001FA04F21F
:1006100040EA020001F0004110EBD37041F100010B
:100620005EEA430E08BF20EAD37070BDC4F1200516
:1006300000FA05F24EEA020E20FA04F301FA05F27E
:1006400043EA020321FA04F001F0004121FA04F226
:1006500020EA020000EBD3705EEA430E08BF20EAF6
:10066000D37070BD94F0000F0FD101F00046400030
:1006700041EB010111F4801F08BF013CF7D041EAB2
:10068000060195F0000F18BF704703F000465200B6
:1006900043EB030313F4801F08BF013DF7D043EA87
:1006A0000603704794EA0C0F0CEA135518BF95EA3D
:1006B0000C0F0CD050EA410618BF52EA4306D1D1C4
:1006C00081EA030101F000414FF0000070BD50EAE3
:1006D000410606BF1046194652EA430619D094EA6D
:1006E0000C0F02D150EA013613D195EA0C0F05D157
:1006F00052EA03361CBF104619460AD181EA0301AB
:1007000001F0004141F0FE4141F470014FF0000062
:1007100070BD41F0FE4141F4780170BD70B54FF0FD
:10072000FF0C4CF4E06C1CEA11541DBF1CEA13557D
:1007300094EA0C0F95EA0C0F00F0A7F8A4EB05045F
:1007400081EA030E52EA03354FEA013100F0888056
:100750004FEA03334FF0805545EA131343EA12631F
:100760004FEA022245EA111545EA10654FEA0026D4
:100770000EF000419D4208BF964244F1FD0404F58D
:10078000407402D25B084FEA3202B61A65EB0305E9
:100790005B084FEA32024FF480104FF4002CB6EBA6
:1007A000020E75EB030E22BFB61A754640EA0C0026
:1007B0005B084FEA3202B6EB020E75EB030E22BF66
:1007C000B61A754640EA5C005B084FEA3202B6EBA7
:1007D000020E75EB030E22BFB61A754640EA9C0066
:1007E0005B084FEA3202B6EB020E75EB030E22BF36
:1007F000B61A754640EADC0055EA060E18D04FEAF4
:10080000051545EA16754FEA06164FEAC30343EA93
:1008100052734FEAC2025FEA1C1CC0D111F4801F60
:100820000BD141EA00014FF000004FF0004CB6E759
:1008300011F4801F04BF01430020B4F1FD0C88BFF8
:10084000BCF5E06F3FF6AFAEB5EB030C04BFB6EB03
:10085000020C5FEA500C50F1000041EB045170BDF6
:100860000EF0004E4EEA113114EB5C04C2BFD4EB23
:100870000C0541EA045170BD41F480114FF0000EA7
:10088000013C90E645EA060E8DE60CEA135594EA23
:100890000C0F08BF95EA0C0F3FF43BAF94EA0C0F26
:1008A0000AD150EA01347FF434AF95EA0C0F7FF49B
:1008B00025AF104619462CE795EA0C0F06D152EAEF
:1008C00003353FF4FDAE1046194622E750EA4106D3
:1008D00018BF52EA43067FF4C5AE50EA41047FF4E4
:1008E0000DAF52EA43057FF4EBAE12E74FF0FF3C49
:1008F00006E000BF4FF0010C02E000BF4FF0010C1A
:100900004DF804CD4FEA410C7FEA6C5C4FEA430C92
:1009100018BF7FEA6C5C1BD001B050EA410C0CBFE1
:1009200052EA430C91EA030F02BF90EA020F002043
:10093000704710F1000F91EA030F58BF994208BFAA
:1009400090422CBFD8176FEAE37040F00100704767
:100950004FEA410C7FEA6C5C02D150EA013C07D1BE
:100960004FEA430C7FEA6C5CD6D152EA033CD3D009
:100970005DF8040B704700BF8446104662468C4603
:100980001946634600E000BF01B5FFF7B7FF002836
:1009900048BF10F1000F01BD4DF808EDFFF7F4FF5F
:1009A0000CBF012000205DF808FB00BF4DF808EDEA
:1009B000FFF7EAFF34BF012000205DF808FB00BF0D
:1009C0004DF808EDFFF7E0FF94BF012000205DF82F
:1009D00008FB00BF4DF808EDFFF7CEFF94BF0120E4
:1009E00000205DF808FB00BF4DF808EDFFF7C4FFDD
:1009F00034BF012000205DF808FB00BF4FEA410C26
:100A00007FEA6C5C02D150EA013C0AD14FEA430C08
:100A10007FEA6C5C02D152EA033C02D14FF0000045
:100A200070474FF0010070474A0011D212F50012D2
:100A300011D20DD56FF47873B3EB62520ED44FEA36
:100A4000C12343F0004343EA505323FA02F07047B6
:100A50004FF00000704750EA013002D14FF0FF30F4
:100A600070474FF0000070474FEA4102B2F1E04397
:100A700024BFB3F5001CDCF1FE5C0DD901F0004C85
:100A80004FEAC0024CEA5070B2F1004F40EB8300D5
:100A900008BF20F00100704711F0804F21D113F101
:100AA0003872BCBF01F00040704741F480114FEA3A
:100AB0005252C2F11802C2F1200C10FA0CF320FAC3
:100AC00002F018BF40F001004FEAC1234FEAD323E0
:100AD00003FA0CFC40EA0C0023FA02F34FEA43034A
:100AE000CCE77FEA625307D150EA01331EBF4FF0D3
:100AF000FE4040F44000704701F0004040F0FE40EE
:100B000040F40000704700BF80F0004002E000BFEA
:100B100081F0004142001FBF5FEA410392EA030FE8
:100B20007FEA226C7FEA236C6AD04FEA1262D2EB32
:100B30001363C1BFD218414048404140B8BF5B4237
:100B4000192B88BF704710F0004F40F4000020F0D0
:100B50007F4018BF404211F0004F41F4000121F0E6
:100B60007F4118BF494292EA030F3FD0A2F1010230
:100B700041FA03FC10EB0C00C3F1200301FA03F16E
:100B800000F0004302D5494260EB4000B0F5000F91
:100B900013D3B0F1807F06D340084FEA310102F150
:100BA0000102FE2A51D2B1F1004F40EBC25008BF02
:100BB00020F0010040EA03007047490040EB0000CC
:100BC00010F4000FA2F10102EDD1B0FA80FCACF1FB
:100BD000080CB2EB0C0200FA0CF0AABF00EBC250FA
:100BE00052421843BCBFD0401843704792F0000FE8
:100BF00081F4000106BF80F400000132013BB5E73B
:100C00004FEA41037FEA226C18BF7FEA236C21D0B0
:100C100092EA030F04D092F0000F08BF0846704715
:100C200090EA010F1CBF0020704712F07F4F04D1E3
:100C3000400028BF40F00040704712F100723CBFF6
:100C400000F50000704700F0004343F0FE4040F420
:100C5000000070477FEA226216BF08467FEA2363DE
:100C60000146420206BF5FEA412390EA010F40F4C9
:100C7000800070474FF0000304E000BF10F0004315
:100C800048BF40425FEA000C08BF704743F09643FC
:100C900001464FF000001CE050EA010208BF704717
:100CA0004FF000030AE000BF50EA010208BF70479E
:100CB00011F0004302D5404261EB41015FEA010CB3
:100CC00002BF84460146002043F0B64308BFA3F1AB
:100CD0008053A3F50003BCFA8CF2083AA3EBC2538D
:100CE00010DB01FA02FC634400FA02FCC2F12002AC
:100CF000BCF1004F20FA02F243EB020008BF20F0E3
:100D00000100704702F1200201FA02FCC2F1200248
:100D100050EA4C0021FA02F243EB020008BF20EA3D
:100D2000DC7070474FF0FF0C1CEAD0521EBF1CEA6B
:100D3000D15392EA0C0F93EA0C0F6FD01A4480EA59
:100D4000010C400218BF5FEA41211ED04FF0006342
:100D500043EA501043EA5111A0FB01310CF000406E
:100D6000B1F5000F3EBF490041EAD3715B0040EA94
:100D7000010062F17F02FD2A1DD8B3F1004F40EB64
:100D8000C25008BF20F00100704790F0000F0CF037
:100D9000004C08BF49024CEA502040EA51207F3AFB
:100DA000C2BFD2F1FF0340EAC250704740F40000D6
:100DB0004FF00003013A5DDC12F1190FDCBF00F0C7
:100DC00000407047C2F10002410021FA02F1C2F175
:100DD000200200FA02FC5FEA310040F1000053EA11
:100DE0004C0308BF20EADC70704792F0000F00F05F
:100DF000004C02BF400010F4000F013AF9D040EA65
:100E00000C0093F0000F01F0004C02BF490011F4F8
:100E1000000F013BF9D041EA0C018FE70CEAD153F6
:100E200092EA0C0F18BF93EA0C0F0AD030F0004C76
:100E300018BF31F0004CD8D180EA010000F000402A
:100E4000704790F0000F17BF90F0004F084691F0E8
:100E5000000F91F0004F14D092EA0C0F01D1420222
:100E60000FD193EA0C0F03D14B0218BF084608D1EB
:100E700080EA010000F0004040F0FE4040F4000035
:100E8000704740F0FE4040F4400070474FF0FF0CC8
:100E90001CEAD0521EBF1CEAD15392EA0C0F93EA0F
:100EA0000C0F69D0A2EB030280EA010C49024FEA61
:100EB000402037D04FF0805343EA111143EA10131A
:100EC0000CF000408B4238BF5B0042F17D024FF4D2
:100ED000000C8B4224BF5B1A40EA0C00B3EB510FAD
:100EE00024BFA3EB510340EA5C00B3EB910F24BF96
:100EF000A3EB910340EA9C00B3EBD10F24BFA3EB1B
:100F0000D10340EADC001B0118BF5FEA1C1CE0D1E2
:100F1000FD2A3FF650AF8B4240EBC25008BF20F095
:100F2000010070470CF0004C4CEA50207F32C2BFE9
:100F3000D2F1FF0340EAC250704740F400004FF086
:100F40000003013A37E792F0000F00F0004C02BFB7
:100F5000400010F4000F013AF9D040EA0C0093F081
:100F6000000F01F0004C02BF490011F4000F013BDB
:100F7000F9D041EA0C0195E70CEAD15392EA0C0F43
:100F800008D142027FF47DAF93EA0C0F7FF470AF7B
:100F9000084676E793EA0C0F04D14B023FF44CAFBE
:100FA00008466EE730F0004C18BF31F0004CCAD153
:100FB00030F000427FF45CAF31F000437FF43CAF8F
:100FC0005FE700BF7BB972B90029BEBF00204FF0B8
:100FD000004106E008BF00281CBF6FF000414FF041
:100FE000FF3000F0A7B9ADF1080C6DE904CE00297F
:100FF00009DB002B1ADB00F035F8DDF804E0DDE951
:10100000022304B07047404261EB4101002B1BDB1F
:1010100000F028F8DDF804E0DDE9022304B04042E6
:1010200061EB4101524263EB43037047524263EB71
:10103000430300F017F8DDF804E0DDE9022304B013
:10104000404261EB41017047524263EB430300F0C1
:1010500009F8DDF804E0DDE9022304B0524263EB55
:10106000430370472DE9F0478C460446089E002B49
:101070004BD18A42154667D9B2FA82F24AB1C2F11F
:10108000200701FA02F320FA07F7954047EA030C1C
:1010900094404FEA154EBCFBFEF71FFA85F80EFB95
:1010A00017C307FB08F9210C41EA0343994509D905
:1010B000EB1807F1FF3180F01C81994540F219814E
:1010C000023F2B44A3EB0903B3FBFEF00EFB1033EE
:1010D00000FB08F1A4B244EA0344A14209D92C1947
:1010E00000F1FF3380F00781A14240F20481023811
:1010F0002C4440EA07400027641A1EB10023D44064
:10110000C6E900433946BDE8F0878B4209D9002E75
:1011100000F0EC800027C6E9000138463946BDE8FA
:10112000F087B3FA83F7002F48D18B4202D3824273
:1011300000F2FB80841A61EB030301209C46002E21
:10114000E0D0C6E9004CDDE702B9FFDEB2FA82F278
:10115000002A40F08F800127491B4FEA15481FFAEB
:1011600085F9B1FBF8FE08FB1E1109FB0EF04FEAF2
:10117000144C4CEA0143984207D9EB180EF1FF31A9
:1011800002D2984200F2CD808E461B1AB3FBF8F0D3
:1011900008FB103309FB00F9A4B244EA0344A1455B
:1011A00007D92C1900F1FF3302D2A14500F2B68015
:1011B0001846A4EB090440EA0E409EE7C7F120055B
:1011C000BB4022FA05FC4CEA030C21FA05F44FEA75
:1011D0001C4EB4FBFEF91FFA8CF80EFB194420FAE2
:1011E00005F3B94009FB08FA19430B0C43EA044420
:1011F000A24502FA07F200FA07F30BD91CEB04042C
:1012000009F1FF3080F08880A24540F28580A9F185
:1012100002096444A4EB0A04B4FBFEF00EFB104484
:1012200000FB08FA89B241EA0444A24508D91CEB44
:10123000040400F1FF316BD2A24569D9023864443D
:1012400040EA0940A0FB0289A4EB0A044C45414650
:10125000CE4654D351D0002E69D05A1A64EB0E04F6
:1012600004FA05F522FA07F3FC401D43C6E90054D1
:10127000002747E79540C2F1200321FA03F04FEA27
:101280001548B0FBF8F71FFA85F908FB170024FA98
:1012900003F3914007FB09FC0B43190C41EA0041A1
:1012A0008C4504FA02F407D9691807F1FF3031D2EE
:1012B0008C452FD9023F2944A1EB0C01B1FBF8F07A
:1012C00008FB101C00FB09FE99B241EA0C418E4557
:1012D00007D9691800F1FF3318D28E4516D90238A4
:1012E0002944A1EB0E0140EA07473AE7374630466A
:1012F00008E70F46E6E61846FBE64345ABD2B8EBF7
:10130000020169EB0C0201389646A4E71846E8E7AB
:10131000084695E70746CFE781467BE702382C442D
:1013200047E7AEF1020E2B442FE7384607E7374672
:10133000E8E600BF704700BF10B504460E4B1878B2
:101340004FF47A73B3FBF0F30C4A1068B0FBF3F080
:1013500000F0DEF968B90F2C01D901200AE0002263
:1013600021464FF0FF3000F09FF9034B5C600020F6
:1013700000E0012010BD00BF000000200C00002094
:1013800008B5074A136843F010031360032000F008
:1013900079F90F20FFF7D0FF03F0AAFB002008BD6A
:1013A00000200240034A1168034B1B780B44136072
:1013B000704700BF100F002000000020014B18688C
:1013C000704700BF100F002038B50446FFF7F6FF46
:1013D0000546B4F1FF3F02D0044B1B781C44FFF7D5
:1013E000EDFF401BA042FAD338BD00BF0000002033
:1013F00030B482B00023019390F82430012B00F028
:101400008B800246012380F824304B68062B29D8B4
:101410000568686B03EB8303053B1F249C4020EAAF
:1014200004000C6804FA03F303436B630B68092B95
:1014300038D91568E86803EB43031E3B07249C403A
:1014400020EA04008C6804FA03F30343EB600B68A2
:10145000103B012B34D90020002382F8243002B045
:1014600030BC70470C2B0ED80568286B03EB830348
:10147000233B1F249C4020EA04000C6804FA03F379
:1014800003432B63D2E70568E86A03EB8303413B20
:101490001F249C4020EA04000C6804FA03F3034371
:1014A000EB62C3E71568286903EB430307249C40FC
:1014B00020EA04008C6804FA03F303432B61C6E7B7
:1014C00013681648834205D0936A43F02003936261
:1014D0000120C1E7986810F4000F1BD1986840F410
:1014E000000098600B68102B01D00020B4E70C4B73
:1014F0001B680C49A1FB03139B0C03EB83035900EE
:10150000019102E0019B013B0193019B002BF9D16A
:101510000020A1E700209FE70220A0E7002401406F
:101520000C00002083DE1B4338B503689A6812F074
:10153000010F01D1002038BD04469A6822F0010253
:101540009A60FFF73BFF054623689B6813F0010F85
:101550000ED0FFF733FF401B0228F5D9A36A43F0F2
:101560001003A362E36A43F00103E3620120E2E7B0
:101570000020E0E700287FD038B50446836A002BBE
:1015800033D02046FFF7D0FFA36A13F010036DD1CC
:1015900000286BD1A26A22F4885222F0020242F0A3
:1015A0000202A2626268E1690A43E56842EA450212
:1015B000A168B1F5807F21D001291CD06169012982
:1015C0001FD02568696821F469410B436B6021686D
:1015D0008D682A4B2B4013438B60A368B3F5807F43
:1015E00020D0012B1ED000211FE0C36280F82430E0
:1015F00002F072FCC5E74FF48073DFE74FF48073AD
:10160000DCE735B9A169013943EA413343F40063AA
:10161000D7E7A16A41F02001A162E16A41F001012E
:10162000E162CEE72369013B19052568EB6A23F4E3
:1016300070030B43EB6223689968114B0B409A428D
:101640000BD0A36A23F0120343F01003A362E36AF2
:1016500043F00103E36201200DE00023E362A36A8B
:1016600023F0030343F00103A36204E0A36A43F001
:101670001003A362012038BD01207047FDF7E1FF90
:10168000FE0E1FFF074AD36823F4E0631B041B0C04
:10169000000200F4E060184340F0BF6040F4003006
:1016A000D060704700ED00E030B4174BDB68C3F347
:1016B0000223C3F10704042C28BF04241D1D062D9A
:1016C00018D9033B4FF0FF3505FA04F421EA040171
:1016D000994005FA03F322EA0303194300280BDBC0
:1016E0000901C9B200F1604000F5614080F80013C3
:1016F00030BC70470023E5E700F00F000901C9B2D4
:10170000024B1954F4E700BF00ED00E014ED00E0D7
:101710000138B0F1807F0AD2064B5860064AF021AA
:1017200082F823100020986007221A607047012079
:10173000704700BF10E000E000ED00E0F0B482B0C0
:1017400000263546A1E0002C59D0012C00D1CE68EE
:10175000FF2B68D88446FF2B68D8AC00DCF800204B
:101760000F27A74022EA070206FA04F42243CCF826
:1017700000204A6812F0805F00F086805E4A94691B
:1017800044F001049461926902F001020192019A0D
:10179000AC08A71C594A52F8272005F00307BF00E0
:1017A0004FF00F0C0CFA07FC22EA0C0C544A904242
:1017B00042D002F5806290427FD002F58062904272
:1017C0007DD002F58062904234D0042235E04D4F46
:1017D000BC4214D00BD94C4FBC4210D007F5803717
:1017E000BC420CD0A7F58017BC42B1D107E0A7F5E9
:1017F0008017BC4203D007F58037BC42A8D18C6863
:101800007CB1012C08D042610826A1E7CE680836D9
:101810009EE7CE680C369BE70261082698E7002613
:1018200096E7042694E700F1040C94E7A5F1080478
:10183000A40093E7032200E00022BA4042EA0C022F
:1018400002342E4F47F824204A6812F4803F38D0E3
:101850002E4C22681A4322604A6812F4003F36D0A8
:101860002A4C62681A4362604A6812F4801F34D0BE
:10187000264CA2681A43A2604A6812F4001F32D0B4
:10188000224CE2681343E36001350F2D31D8012269
:10189000AA400B6813409A42F6D14C68122CB8D07B
:1018A00095D8022CB2D07FF64EAF032CB7D0112CB6
:1018B0007FF44EAFCE6804364AE70122BDE702222C
:1018C000BBE7124C226822EA03022260C4E70F4CF5
:1018D000626822EA03026260C6E70C4CA26822EA50
:1018E0000302A260C8E7094CE26822EA0303E3604E
:1018F000CAE702B0F0BC704700100240000001408F
:1019000000080140000021100000311000040140D7
:1019100003685A6912F4806F0DD06FF480625A61C7
:101920000423036400230363202280F83D2080F811
:101930003C300120704700207047F8B506460C4641
:1019400017461D461EE02DB1FFF738FD069BC01A55
:10195000A84217D900233363202286F83D2086F859
:101960003E3086F83C3003201AE033685B6924EA95
:1019700003039BB2B3FA83F35B099F420FD1B5F126
:10198000FF3FE0D1C4F30743012BEED033689B69DE
:1019900024EA03039BB2B3FA83F35B09EDE700206B
:1019A000F8BDF8B504460D4616461F4632E01A68E3
:1019B00042F400721A6023686FF480625A61042353
:1019C000236400232363202284F83D2084F83C30E4
:1019D00001202DE026B1FFF7F1FCC01BB04219D960
:1019E00000232363202284F83D2084F83C30032028
:1019F0001EE023685B6925EA03039BB2003318BF2E
:101A00000123A3B123685A6912F4806FCFD1B6F1D4
:101A1000FF3FDFD1C5F30743012BEAD023689B6961
:101A200025EA03039BB2003318BF0123E9E7002036
:101A3000F8BD0000F0B583B004460D4616461F46BB
:101A4000C36A042B0DD0012B0BD013F5803F08D0B7
:101A5000036B122B0AD10268136843F4807313607E
:101A600004E02268136843F48073136000973346E0
:101A700000224FF001112046FFF75FFF58BB23699A
:101A8000B3F5804F10D1236805F0FE051D613B467C
:101A9000324615492046FFF784FF0346E0B1236C28
:101AA000042B1ED1012317E0EB11226803F006037B
:101AB00043F0F00313613B4632460C492046FFF7E2
:101AC00070FF20B1236C042B09D1012304E02368AB
:101AD000EDB21D61DBE70323184603B0F0BD03231D
:101AE000FAE70323F8E700BF020001000800010045
:101AF0002DE9F04184B004460D4616461F46C26AE1
:101B000001680B6843F480630B60042A0DD0012A3E
:101B10000BD012F5803F08D0036B112B0AD102685D
:101B2000136843F48073136004E02268136843F47D
:101B3000807313600097334600224FF00111204656
:101B4000FFF7FBFE002852D12369B3F5804F12D175
:101B5000236845F00105EDB21D613B4632462A4936
:101B60002046FFF71EFF0346002841D0236C042BBC
:101B700048D101233CE04FEAE51808F00608236845
:101B800048F0F0021A613B46324620492046FFF7F2
:101B900008FF20B1236C042B2ED1012328E02368F9
:101BA000EDB21D613B46324617492046FFF7F9FE6C
:101BB00020B1236C042B21D1012319E000220392D0
:101BC000236859690391996903910399196841F44C
:101BD00080711960009733464FF001112046FFF7DE
:101BE000ACFE68B9226848F0F1031361B5E703233E
:101BF000184604B0BDE8F0810323F9E70323F7E7B3
:101C00000323F5E70323F3E70200010008000100C6
:101C100070B504460D46164623685B6913F0800FC5
:101C200019D12046FFF774FEB8B9B5F1FF3FF3D0E4
:101C300025B1FFF7C3FB801BA842EDD9236C43F00D
:101C40002003236400232363202284F83D2084F8AA
:101C50003C30032000E0002070BD0120FCE770B59F
:101C600004460D46164623685B6913F0040F19D12C
:101C70002046FFF74DFEB8B9B5F1FF3FF3D025B1CF
:101C8000FFF79CFB801BA842EDD9236C43F0200397
:101C9000236400232363202284F83D2084F83C3011
:101CA000032000E0002070BD0120FCE770B5054670
:101CB0000C4616462B685A6912F0400F22D15A6919
:101CC00012F0100F11D124B1FFF778FB801BA04256
:101CD000F0D92B6C43F020032B64202385F83D3092
:101CE000002385F83C30032070BD6FF010025A616C
:101CF00000232B642B63202285F83D2085F83C309F
:101D00000120F1E70020EFE7002800F0A28038B5BD
:101D1000044690F83D30002B4FD0242384F83D300A
:101D20002268136823F00103136000F085FE6268E7
:101D30004A4B9A4246D84A4B98428CBF0023012313
:101D4000002B40F08880474BA3FB00239B0C2268AC
:101D500053606168414A91423AD801332268136264
:101D600061683E4B99423DD8431E4900B3FBF1F3F5
:101D70000133C3F30B03042B38BF04232268D36160
:101D8000E369216A22680B4313602369E1682268D2
:101D90000B4393606369A16922680B43D360226897
:101DA000136843F00103136000202064202384F8AB
:101DB0003D30206384F83E0038BD80F83C3002F0AE
:101DC00001FCAAE7284B98428CBF00230123B7E708
:101DD0004FF4967202FB03F3244AA2FB03239B09F0
:101DE0000133BBE7A368BBB9421E01EB4105B2FB5F
:101DF000F5F20132C2F30B02B2FA82F2520932BB9F
:101E0000C3B9013801EB4103B0FBF3F30133C3F372
:101E10000B0343F40043B1E7421E01EB810505EBE0
:101E20008505B2FBF5F20132C2F30B02B2FA82F27F
:101E30005209E4E7013801EB810303EB8303B0FBB4
:101E4000F3F30133C3F30B0343F4404396E7012359
:101E500094E7012070470120AEE700BFA086010093
:101E60007F841E0083DE1B43FF083D00D34D6210BC
:101E70002DE9F04184B004460E4690461F46FFF718
:101E80009DFA94F83D30DBB2202B04D00226304678
:101E900004B0BDE8F08105460090192301225449A1
:101EA0002046FFF74AFD002840F0998094F83C3026
:101EB000012B00F09680012384F83C3023681A68D7
:101EC00012F0010F03D11A6842F001021A60226871
:101ED000136823F400631360212384F83D3010233A
:101EE00084F83E3000232364C4F824806785A3F57A
:101EF0008033E362638D23852B460A9A3146204660
:101F0000FFF798FD064660B1236C042B04D1002333
:101F100084F83C300126BAE7002384F83C300326DD
:101F2000B5E70023039323685A6903929B690393DF
:101F3000039B10E0236C042B55D12268136843F4F3
:101F4000007313600126A2E72A460A992046FFF78C
:101F500086FE00282BD1238D002B32D02A460A99E9
:101F60002046FFF755FE0028E4D1636A5A1C6262DE
:101F700022681B781361638D013B9BB26385238DBF
:101F8000013B9BB223852268516911F0040FDBD01D
:101F9000002BD9D0636A591C61621B781361638D71
:101FA000013B9BB26385238D013B2385CCE7236CEA
:101FB000042B1AD12268136843F4007313600126BE
:101FC00065E72268136843F400731360202384F8E4
:101FD0003D30002384F83E3084F83C3057E7022639
:101FE00055E7022653E7032651E703264FE700BFD4
:101FF000020010002DE9F04186B004460E469046DE
:102000001F46FFF7DBF994F83D30DBB2202B04D0FC
:102010000226304606B0BDE8F0810546009019233F
:1020200001228F492046FFF788FC002840F05181AB
:1020300094F83C30012B00F04E81012384F83C30B1
:1020400023681A6812F0010F03D11A6842F00102E6
:102050001A602268136823F400631360222384F853
:102060003D30102384F83E3000232364C4F82480DC
:102070006785A3F58033E362638D23852B460C9A35
:1020800031462046FFF734FD064660B1236C042B31
:1020900004D1002384F83C300126BAE7002384F8F9
:1020A0003C300326B5E7238D5BB9029323685A6958
:1020B00002929A690292029A1A6842F400721A60B5
:1020C0007FE0012B0FD0022B21D02268136843F44C
:1020D000806313600023059323685A6905929B6906
:1020E0000593059B6DE02268136823F480631360F9
:1020F00072B60023039323685A6903929A69039284
:10210000039A1A6842F400721A6062B659E02268B3
:10211000136843F40063136072B6002304932368CA
:102120005A6904929A690492049A1A6822F48062A5
:102130001A6062B645E02A460C992046FFF7B6FDC4
:1021400068B923681A69636A591C61621A70238D21
:10215000013B2385638D013B9BB2638531E0236C9A
:10216000202B01D0012654E7032652E700950C9B53
:1021700000223C492046FFF7E0FB002840F0AD80FC
:1021800072B62268136843F40073136023681A69F7
:10219000636A591C61621A70238D013B2385638D2C
:1021A000013B9BB2638562B623681A69636A591C56
:1021B00061621A70238D013B2385638D013B9BB2C5
:1021C0006385238D002B7BD0032B4DD8012BB2D000
:1021D000022BCBD000950C9B002222492046FFF712
:1021E000ACFB00287BD12268136823F48063136062
:1021F00072B623681A69636A591C61621A70238D6A
:10220000013B2385638D013B9BB2638500950C9B4D
:10221000002214492046FFF790FB002861D1226874
:10222000136843F40073136023681A69636A591CC6
:1022300061621A70238D013B2385638D013B9BB244
:10224000638562B623681A69636A591C61621A70F1
:10225000238D013B2385638D013B9BB26385B0E7F2
:1022600002001000040001002A460C992046FFF7E6
:102270001DFDF0B923681A69636A591C61621A70FE
:10228000238D013B2385638D013B9BB263852368CE
:102290005A6912F0040F94D01A69636A591C61627A
:1022A0001A70238D013B2385638D013B9BB26385AF
:1022B00087E7236C202B01D00126AAE60326A8E697
:1022C000202384F83D30002384F83E3084F83C30ED
:1022D0009FE602269DE602269BE6032699E6032654
:1022E00097E6032695E600BF002866D0F0B587B0D4
:1022F000044690F82934C3B1032384F829342068B4
:1023000000F062FF254655F8107B6E460FCD0FC6D4
:102310002B683360231D0ECB384600F046FF0021AA
:10232000206800F05BFF002315E080F8283402F0FD
:1023300015FEE1E704EB4312012182F8291082F82F
:1023400028309386002182F82B109163D1639A1C68
:102350005201A15001330E2BECD9002312E004EB03
:102360004312002182F8291282F82832938682F8DB
:102370002B12C2F83812C2F83C1203F112025201B9
:10238000A15001330E2BEAD9254655F8107B6E4635
:102390000FCD0FC62B683360231D0ECB384600F0DF
:1023A0001FFF002584F82450012384F82934206875
:1023B00000F02CFF284607B0F0BD01207047000058
:1023C00082B0084B1B68084AA2FB03235B0A00FB90
:1023D00003F0019000BF019B5A1E0192002BF9D11E
:1023E00002B070470C000020D34D621070B582B06F
:1023F0000446036813F0010F2CD0AB4B5B6803F06D
:102400000C03042B1DD0A84B5B6803F00C03082BB6
:1024100012D06368B3F5803F41D0002B55D103F152
:10242000804303F504331A6822F480321A601A6874
:1024300022F480221A6037E09B4B5B6813F4803FE4
:10244000E7D0994B1B6813F4003F03D06368002B5F
:1024500000F0AE81236813F0020F76D0924B5B68D8
:1024600013F00C0F5FD0904B5B6803F00C03082B4C
:1024700054D02369002B00F08A808C4B01221A6013
:10248000FEF79CFF0546884B1B6813F0020F75D1C1
:10249000FEF794FF401B0228F5D903208BE1824A06
:1024A000136843F480331360636843B3FEF786FF19
:1024B00005467D4B1B6813F4003FCBD1FEF77EFF32
:1024C000401B6428F5D9032075E1B3F5A02F09D08E
:1024D000754B1A6822F480321A601A6822F480223E
:1024E0001A60E1E703F18043A3F53C331A6842F434
:1024F00080221A601A6842F480321A60D4E7FEF72C
:102500005DFF0546684B1B6813F4003FA2D0FEF741
:1025100055FF401B6428F5D903204CE1624B5B68F2
:1025200013F4803FA5D1604B1B6813F0020F04D059
:102530002369012B01D001203DE15B4A136823F0A0
:10254000F803616943EAC1031360236813F0080FBD
:1025500032D0A369002B5BD0554B01221A60FEF7E5
:102560002DFF0546504B5B6A13F0020F21D1FEF799
:1025700025FF401B0228F5D903201CE14A4A1368B5
:1025800023F0F803616943EAC1031360DDE7474BB9
:1025900000221A60FEF712FF0546434B1B6813F03A
:1025A000020FD2D0FEF70AFF401B0228F5D9032004
:1025B00001E10120FFF704FF236813F0040F00F08E
:1025C0009780394BDB6913F0805F33D1364BDA6982
:1025D00042F08052DA61DB6903F080530193019B82
:1025E0000125344B1B6813F4807F25D0E368012B51
:1025F00036D0002B4CD103F1804303F504331A6A23
:1026000022F001021A621A6A22F004021A622CE015
:10261000274B00221A60FEF7D1FE0546224B5B6A6B
:1026200013F0020FC8D0FEF7C9FE401B0228F5D9EF
:102630000320C0E00025D4E71E4A136843F48073EA
:102640001360FEF7BBFE06461A4B1B6813F4807F2F
:10265000CCD1FEF7B3FE801B6428F5D90320AAE095
:10266000114A136A43F001031362E36873B3FEF780
:10267000A5FE06460C4B1B6A13F0020F37D1FEF77E
:102680009DFE801B41F288339842F3D9032092E0EB
:10269000052B11D0044B1A6A22F001021A621A6A41
:1026A00022F004021A62E0E70010024000004242F9
:1026B0008004424200700040414B1A6A42F004021A
:1026C0001A621A6A42F001021A62CEE7FEF776FE3B
:1026D00006463B4B1B6A13F0020F08D0FEF76EFE56
:1026E000801B41F288339842F3D9032063E0E5B9B7
:1026F000E369002B5ED0324A526802F00C02082ACD
:102700005BD0022B17D02F4B00221A60FEF756FE2B
:1027100004462B4B1B6813F0007F47D0FEF74EFE9C
:10272000001B0228F5D9032045E0254AD36923F090
:102730008053D361DCE7234B00221A60FEF73EFE94
:1027400005461F4B1B6813F0007F06D0FEF736FED0
:10275000401B0228F5D903202DE0236AB3F5803F02
:102760001AD017494B6823F47413226A606A024333
:1027700013434B60134B01221A60FEF71FFE044601
:102780000F4B1B6813F0007F0ED1FEF717FE001BE6
:102790000228F5D903200EE0094A536823F40033D8
:1027A000A1680B435360DCE7002004E0002002E056
:1027B000012000E0002002B070BD0120FBE700BF57
:1027C000001002406000424230B587B00D46002341
:1027D000049302230393032305934FF4807302931E
:1027E0000A4CA36943F00403A361A36903F0040343
:1027F0000193019B02A90648FEF7A0FF616821F042
:10280000E0612943616007B030BD00BF00100240A5
:102810000008014010B487B0184C94E80F000DF187
:10282000180C0CE90F00238AADF80430144B5B68D8
:1028300003F00C02042A03D0082A05D0114800E056
:10284000114807B010BC7047C3F3834206A90A447D
:1028500012F8102C13F4803F0CD0094B5B68C3F3C3
:1028600040430B4413F8143C074800FB02F0B0FB54
:10287000F3F0E6E7054800FB02F0E2E7D06200086B
:102880000010024000127A000024F40000093D000C
:10289000624B1B6803F007038B420CD25F4A13683C
:1028A00023F007030B431360136803F007038B4205
:1028B00001D00120704770B5036813F0020F17D0E4
:1028C00013F0040F04D0564A536843F4E063536096
:1028D000036813F0080F04D0514A536843F460535F
:1028E00053604F4A536823F0F003846823435360D6
:1028F0000D460446036813F0010F52D04368012BC4
:1029000023D0022B28D0464A126812F0020F00F0A2
:10291000828043494A6822F0030213434B60FEF76A
:102920004DFD06466368012B1DD0022B2AD03C4B7F
:102930005B6813F00C0F34D0FEF740FD801B41F2B2
:1029400088339842F3D9032064E0354A126812F4C0
:10295000003FDED101205DE0314A126812F0007FB5
:10296000D7D1012056E02E4B5B6803F00C03042BFB
:1029700017D0FEF723FD801B41F288339842F2D92D
:10298000032047E0264B5B6803F00C03082B08D0BC
:10299000FEF714FD801B41F288339842F2D90320E0
:1029A00038E01E4B1B6803F00703AB420CD91B4AEF
:1029B000136823F007032B431360136803F0070326
:1029C000AB4201D0012025E0236813F0040F06D0AC
:1029D000134A536823F4E063E1680B4353602368B0
:1029E00013F0080F07D00E4A536823F4605321698F
:1029F00043EAC1035360FFF70DFF094B5B68C3F364
:102A00000313084AD35CD840074B18600F20FEF729
:102A100093FC002070BD0120FCE700BF00200240B5
:102A200000100240F86200080C000020014B1868FA
:102A3000704700BF0C00002008B5FFF7F7FF044BFC
:102A40005B68C3F30223034AD35CD84008BD00BFD0
:102A5000001002400863000808B5FFF7E7FF044BC9
:102A60005B68C3F3C223034AD35CD84008BD00BFF0
:102A7000001002400863000870B582B00446036885
:102A800013F0010F34D03E4BDB6913F0805F48D167
:102A90003B4BDA6942F08052DA61DB6903F0805324
:102AA0000193019B0125374B1B6813F4807F3AD0BB
:102AB000334B1B6A13F4407311D0626802F4407206
:102AC0009A420CD02E4A136A23F440702E490126F4
:102AD0000E6000260E60106213F0010F37D1284AF5
:102AE000136A23F4407361680B431362002D3FD1D6
:102AF000236813F0020F06D0214A536823F44043A1
:102B0000A1680B435360236813F0100F35D01C4AA3
:102B1000536823F48003E1680B435360002002B044
:102B200070BD0025BFE7174A136843F48073136034
:102B3000FEF744FC0646134B1B6813F4807FB7D1A5
:102B4000FEF73CFC801B6428F5D90320E7E7FEF77D
:102B500035FC06460A4B1B6A13F0020FBFD1FEF785
:102B60002DFC801B41F288339842F3D90320D6E72D
:102B7000D36923F08053D361BAE70020CFE700BFC9
:102B800000100240007000404004424200283CD047
:102B900010B504460023836290F85130002B31D0E9
:102BA000022384F851302268136823F04003136035
:102BB0006368A2681343E26813432269134362699E
:102BC0001343A26902F400721343E2691343226AB9
:102BD0001343A16A22680B431360638B03F0040361
:102BE000616A22680B4353602368E26A1A612268B3
:102BF000D36923F40063D36100206065012384F866
:102C0000513010BD01F03AFFCAE7012070470000C3
:102C100070B4036A23F001030362036A42688469A3
:102C200024F073040D6845EA040623F002048B685F
:102C300023430D4DA84209D00B4DA8420DD0426050
:102C400086614A684263036270BC704723F00803E0
:102C5000CC68234323F00403EEE722F440724C696E
:102C600014438A692243EAE7002C014030B4036A26
:102C700023F480730362036A4268C46924F0730416
:102C80000D682C4323F400738D6843EA05230F4D30
:102C9000A84209D00D4DA8420ED04260C4614A68D6
:102CA000C263036230BC704723F40063CD6843EA1B
:102CB000052323F48063EDE722F440524D6942EA94
:102CC00005128D6942EA0512E7E700BF002C0140BA
:102CD00030B4036A23F480530362036A4468C26910
:102CE00022F4E6420D6842EA052223F400538D687F
:102CF00043EA0533074DA84206D04460C2614A68E2
:102D00000264036230BC704724F480444D6944EA95
:102D10008514F2E7002C014003681B4A90420AD058
:102D2000B0F1804F07D0A2F59432904203D002F563
:102D30008062904203D123F070034A681343124A21
:102D400090420AD0B0F1804F07D0A2F59432904261
:102D500003D002F58062904203D123F44073CA6825
:102D6000134323F080034A69134303608B68C362F3
:102D70000B688362044B984202D001234361704781
:102D80000B690363F9E700BF002C0140A8B110B53F
:102D9000044690F83D305BB1022384F83D30211D9C
:102DA0002068FFF7B9FF012384F83D30002010BDF3
:102DB00080F83C3001F0F6FEEEE70120704700009D
:102DC00030B4036A23F010030362036A4468826923
:102DD00022F4E6420D6842EA052223F020038D68C2
:102DE00043EA05130E4DA84209D00D4DA8420ED05E
:102DF000446082614A688263036230BC704723F09A
:102E00008003CD6843EA051323F04003EDE724F483
:102E100040644D6944EA85048D6944EA8504E7E726
:102E2000002C014038B590F83C30012B66D00D469F
:102E30000446012380F83C30022380F83D300C2A00
:102E40001AD8DFE802F007191919201919193419CD
:102E5000191947000068FFF7DBFE2268936943F009
:102E6000080393612268936923F004039361226845
:102E7000936929690B439361012384F83D30002055
:102E800084F83C0038BD0068FFF79AFF2268936918
:102E900043F4006393612268936923F48063936130
:102EA00022689369296943EA01239361E4E7006892
:102EB000FFF7DCFE2268D36943F00803D361226880
:102EC000D36923F00403D3612268D36929690B43D2
:102ED000D361D1E70068FFF7FBFE2268D36943F4B2
:102EE0000063D3612268D36923F48063D3612268CD
:102EF000D369296943EA0123D361BDE70220C1E711
:102F000010B4012303FA01F4036A23EA0403036201
:102F1000036A8A401343036210BC704710B504462D
:102F200001220068FFF7ECFF2368074A934206D0AE
:102F30002268136843F001031360002010BD5A6C2F
:102F400042F400425A64F3E7002C014090F83C3010
:102F5000012B22D030B4012280F83C20022380F8DB
:102F60003D300468636823F070036360046863683D
:102F70000D682B4363600468A36823F08003A3609B
:102F80000468A36849680B43A36080F83D200023D0
:102F900080F83C30184630BC704702207047000073
:102FA0002DE9F84305460268136923F44053C168CC
:102FB0000B43136183680269134342691343016839
:102FC000CA6822F4B05222F00C021343CB600268AC
:102FD000536923F4407381690B4353610268594B71
:102FE0009A4257D0FFF728FD00EB800000EB8000ED
:102FF0006C68A400B0FBF4F4534FA7FB04346409DD
:103000002601FFF719FD00EB800000EB80006C68E3
:10301000A400B0FBF4F9FFF70FFD00EB800000EB1C
:1030200080006C68A400B0FBF4F4A7FB04346409CE
:103030004FF0640808FB149424013234A7FB0434D5
:10304000640904F0F0043444FFF7F6FC00EB800060
:1030500000EB80006E68B600B0FBF6F6FFF7ECFC04
:1030600000EB800000EB80006B689B00B0FBF3F08E
:10307000A7FB0030400908FB10684FEA081808F168
:103080003208A7FB0837C7F343172B6827449F6014
:10309000BDE8F883FFF7E0FC00EB800000EB800068
:1030A0006C68A400B0FBF4F4274FA7FB0434640958
:1030B0002601FFF7D1FC00EB800000EB80006C687C
:1030C000A400B0FBF4F9FFF7C7FC00EB800000EBB5
:1030D00080006C68A400B0FBF4F4A7FB043464091E
:1030E0004FF0640808FB149424013234A7FB043425
:1030F000640904F0F0043444FFF7AEFC00EB8000F8
:1031000000EB80006E68B600B0FBF6F6FFF7A4FC9B
:1031100000EB800000EB80006B689B00B0FBF3F0DD
:10312000A7FB0030400908FB10684FEA081808F1B7
:103130003208A7FB0837C7F343172B6827449F6063
:10314000A6E700BF003801401F85EB5158B310B50A
:10315000044690F839300BB3242384F839302268C0
:10316000D36823F40053D3602046FFF719FF226889
:10317000136923F4904313612268536923F02A03EF
:1031800053612268D36843F40053D3600020E063A6
:10319000202384F8393084F83A3010BD80F8383074
:1031A00001F086FED8E70120704784B001A880E8CE
:1031B0000E00002004B07047B0F8403043F43F43A5
:1031C000A0F8403000207047B0F8403023F474532A
:1031D0005B045B0CA0F84030002070470020704773
:1031E00084B038B505AC84E80E000123A0F8403067
:1031F0000024A0F84040A0F84440A0F85040FFF759
:10320000DBFF2046BDE8384004B07047002070471F
:10321000842801D0033070470020704708B500F0C3
:10322000C9F9002008BDF0B585B00F4644680568AF
:103230000669B0F90800FFF7EBFF03AB01930090BC
:103240003B46B2B22946204600F082F9012802D15D
:10325000039805B0F0BD0020FBE708B5034600B9B0
:103260000123184600F0E8FA002008BD08B500F078
:103270008FFB012801D000F04DFC08BD00F10803D0
:1032800043604FF0FF328260C3600361002303603C
:10329000704700230361704743684B609A688A60F7
:1032A0009A68516099600861036801330360704750
:1032B00030B40D68B5F1FF3F02D000F1080202E022
:1032C000026904E01A4653681C68AC42FAD9536894
:1032D0004B6099608A605160086103680133036044
:1032E00030BC7047036942688168916082684168B8
:1032F00051605A68824205D0002202611868013884
:103300001860704782685A60F6E70000074B9B6AB6
:103310001B6833B1054B9A6AD268D2685268DA6288
:103320007047024B4FF0FF32DA6270479400002082
:1033300010B50446006B00F03DFD204600F03AFD5C
:1033400010BD2DE9F04780469946089D099F0A9CCB
:10335000266B02F18042013A06EB820626F0070650
:1033600000230F2B07D8C85CE21882F83400CA5C2F
:103370000AB10133F5E7002384F84330062D00D964
:103380000625E56265644FF0000AC4F848A0201DD8
:10339000FFF77FFF04F11800FFF77BFF2461C5F101
:1033A0000705A5616462C4F84CA084F850A04A46A1
:1033B0004146304600F026FB206007B13C60BDE886
:1033C000F087000070B5002407E004EB840293004E
:1033D00010481844FFF752FF0134062CF5D90E4C63
:1033E00004F1BC063046FFF749FF04F1D00528463A
:1033F000FFF744FF04F11400FFF740FF04F1E4007D
:10340000FFF73CFF2046FFF739FFA662C4F8F850EB
:1034100070BD00BFC40000209400002038B50546F0
:1034200000F018FB264BD3F8FC200132C3F8FC2037
:10343000D3F8003173B1224BD3F804318BB9204B50
:10344000D3F80031DA6AEB6A9A420AD81C4BC3F807
:10345000005106E01A4BC3F80051D3F8FC30012BA1
:103460002AD0174CD4F808310133C4F80831EB6A7C
:1034700001229A40D4F80C110A43C4F80C2104F13B
:10348000300003EB83039A00291D1044FFF704FF6B
:1034900000F002FBD4F804316BB1D4F80031DA6AE1
:1034A000EB6A9A4207D2074B4FF080521A60BFF383
:1034B0004F8FBFF36F8F38BDFFF784FFD1E700BF99
:1034C0009400002004ED00E070B504460E461F4B4A
:1034D000D3F81051D3F800010430FFF703FF60B9AF
:1034E0001A4BD3F80021D16A012202FA01F1D3F874
:1034F0000C2122EA0102C3F80C21B4F1FF3F12D0E3
:103500002C44124BD3F800315C60A54214D80F4D07
:10351000A86AD5F800110431FFF7CAFEEB6AA3428E
:1035200012D9EC6210E0002EEAD00848D0F8001161
:103530000431FFF7B1FE07E0044BD3F8F800D3F8ED
:1035400000110431FFF7B4FE70BD00BF94000020ED
:103550002DE9F04385B00746884615469946900008
:1035600000F0A2FBF8B10646542000F09DFB044693
:10357000A8B10663D4B10023039302940D9B019379
:103580000C9B00934B462A4641463846FFF7D9FE2E
:103590002046FFF743FF012005B0BDE8F083304629
:1035A00000F008FCE6E74FF0FF30F5E74FF0FF30A2
:1035B000F2E7000000B583B0174B0193002300939E
:1035C000802216491648FFF7C3FF012805D0B0F145
:1035D000FF3F17D003B05DF804FB4FF0500383F3B7
:1035E0001188BFF36F8FBFF34F8F0E4B4FF0FF3239
:1035F000DA620122C3F804210022C3F8102100F08E
:10360000B5FAE7E74FF0500383F31188BFF36F8FEC
:10361000BFF34F8FFEE700BFB0010020106300082A
:10362000D938000894000020034AD2F81831013339
:10363000C2F81831704700BF940000202DE9F04116
:10364000404BD3F81831002B6CD13E4BD3F81051BE
:103650000135C3F81051CDB99B6A1B6843B14FF0D7
:10366000500383F31188BFF36F8FBFF34F8FFEE7D3
:10367000344B9A6AD3F8F8109962C3F8F820D3F85B
:1036800020210132C3F82021FFF740FE2D4BDB6AD9
:10369000AB423DD900242B4AD2F80031DB6A03EB60
:1036A000830399000A44136B012B42D9012440E0A3
:1036B0000124244B9B6A1B6863B3224B9B6ADB6823
:1036C000DE6873689D422AD306F104084046FFF77E
:1036D00009FEB36A1BB106F11800FFF703FEF36A97
:1036E00001229A40174FD7F80C110A43C7F80C2152
:1036F00007F1300003EB83039A0041461044FFF7C3
:10370000CBFDF26AD7F80031DB6A9A42D0D2D0E71B
:103710000024CEE70B4B4FF0FF32DA62BBE7094AD9
:10372000D362B8E7074AD2F824310133C2F8243112
:103730000024044BD3F8283103B101242046BDE80E
:10374000F08100BF94000020394BD3F8183143B901
:103750004FF0500383F31188BFF36F8FBFF34F8F88
:10376000FEE770B500F076F9314BD3F81821013A35
:10377000C3F81821D3F81831002B54D12C4BD3F8AF
:10378000FC3023B9002400F087F9204670BD0024E6
:10379000274B5B692BB3264D2B6ADC6804F11800BC
:1037A000FFF7A0FD261D3046FFF79CFDE36A0122CE
:1037B0009A40D5F80C110A43C5F80C2105F13000E8
:1037C00003EB83039A0031461044FFF765FDE26A7C
:1037D000D5F80031DB6A9A42DAD30122C5F82821F4
:1037E000D6E70CB1FFF792FD114BD3F8244164B139
:1037F000FFF724FF18B10E4B0122C3F82821013C2A
:10380000F6D10B4B0022C3F82421094BD3F8283101
:103810005BB1084B4FF080521A60BFF34F8FBFF37C
:103820006F8F0124AFE70024ADE70024ABE700BFB2
:103830009400002004ED00E010B5B0B104460F4B39
:10384000D3F8183143B14FF0500383F31188BFF31D
:103850006F8FBFF34F8FFEE7FFF7E6FE0021204694
:10386000FFF732FEFFF770FF38B9054B4FF080527B
:103870001A60BFF34F8FBFF36F8F10BD940000200D
:1038800004ED00E038B5134BD3F814310BB3FFF758
:10389000CBFE104BD3F8E440FFF756FF002CF2D0DC
:1038A00000F0D8F80B4CD4F8F030DD68281DFFF795
:1038B00019FDD4F8FC30013BC4F8FC30D4F81431C5
:1038C000013BC4F8143100F0E7F82846FFF730FD5B
:1038D000D9E738BD9400002008B5FFF7D3FF064BA9
:1038E0001B6B012BF9D9054B4FF080521A60BFF3C7
:1038F0004F8FBFF36F8FF0E79400002004ED00E0DE
:10390000224BD3F8183123B1204B0122C3F82821D0
:1039100070471E4A0023C2F82831D2F80C31B3FA9E
:1039200083F3DBB2C3F11F0303EB830081000A447E
:10393000126B42B94FF0500383F31188BFF36F8FBE
:10394000BFF34F8FFEE710B4104A9900CC18A000C7
:103950001044446B64684463303219448800083072
:10396000024494420AD0094903EB83039A000A44B3
:10397000536BDB68C1F8003110BC704761680348C5
:10398000142202FB03025163EDE700BF9400002004
:10399000064BD3F804313BB1044BD3F818310BB1CB
:1039A00000207047022070470120704794000020DB
:1039B0000B4B1B68B3F1FF3F08D04FF0500383F36C
:1039C0001188BFF36F8FBFF34F8FFEE74FF05003A7
:1039D00083F31188BFF36F8FBFF34F8FFEE700BFF4
:1039E0000800002006480068006880F3088862B676
:1039F00061B6BFF34F8FBFF36F8F00DF00BF0000D2
:103A000008ED00E04FF0807340F8043C21F0010124
:103A100040F8081C034B40F80C3C40F8202C403880
:103A2000704700BFB139000800000000000000002E
:103A3000074B19680868B0E8F00F80F30988BFF3F6
:103A40006F8F4FF0000080F311884EF00D0E70471D
:103A5000940100204FF0500383F31188BFF36F8F60
:103A6000BFF34F8F0A4A136801331360012B00D054
:103A70007047084B1B6813F0FF0FF9D04FF050034D
:103A800083F31188BFF36F8FBFF34F8FFEE700BF43
:103A90000800002004ED00E0094B1B6843B94FF01B
:103AA000500383F31188BFF36F8FBFF34F8FFEE78F
:103AB000013B034A13600BB983F31188704700BFC1
:103AC00008000020000000000000000000000000CE
:103AD000EFF30980BFF36F8F0D4B1A6820E9F00FE9
:103AE00010602DE908404FF0500080F31188FFF777
:103AF00007FF4FF0000080F31188BDE80840196807
:103B00000868B0E8F00F80F30988BFF36F8F704743
:103B10009401002008B54FF0500383F31188BFF3E0
:103B20006F8FBFF34F8FFFF789FD18B1034B4FF035
:103B300080521A60002383F3118808BD04ED00E071
:103B4000064B1B68064AA2FB03239B09013B054A5F
:103B50001360054B07221A60704700BF0C0000205D
:103B6000D34D621014E000E010E000E000B583B037
:103B70001E4B1A78D2B20192FF221A701B78DBB268
:103B80008DF803309DF8033003F05003184A13708A
:103B90000723536009E0164A5368013B53609DF8C0
:103BA00003305B00DBB28DF803309DF8033013F077
:103BB000800FF0D10E4A53681B0203F4E063536098
:103BC000019BDBB2094A13700A4B1A6842F4700277
:103BD0001A601A6842F070421A60FFF7B1FF064B94
:103BE00000221A60FFF7FEFEFFF7E2FE00E400E0AD
:103BF000C001002020ED00E008000020134A12F070
:103C0000070F20D0D11D21F00701C1F540631344F7
:103C10000A460E49C1F8002C0020C1F8040C1344D8
:103C2000083B23F00703C1F8083C58601860981A55
:103C300050601360C1F80C0CC1F8100C4FF0004339
:103C4000C1F8143C70474FF44063E2E7C80100201C
:103C500010B4134B1A6882421BD359685C18844213
:103C600003D1406801445960184641684418A24293
:103C700013D10C4CD4F8084CA2420CD05268114419
:103C800041601A6812680260984200D0186010BC47
:103C900070471346DEE70460F6E70260F4E700BF12
:103CA000C80D0020C801002070B50446FFF7BCFC19
:103CB0003F4BD3F8083CC3B13D4BD3F8143C1C42F6
:103CC0006CD1ACB1083414F0070F11D024F0070404
:103CD000083404F007035BB14FF0500383F31188FD
:103CE000BFF36F8FBFF34F8FFEE7FFF787FFE3E769
:103CF000002C55D02E4BD3F8103CA34252D32C4B62
:103D0000D3F8005C03F5406301E02B4615466A6872
:103D1000A24202D22A68002AF7D1254AD2F8082CFA
:103D2000AA4241D01E6808362A681A606B681B1BBD
:103D3000102B10D9281910F0070F08D04FF050039E
:103D400083F31188BFF36F8FBFF34F8FFEE743609C
:103D50006C60FFF77DFF6968154AD2F8103C5B1A6A
:103D6000C2F8103CD2F80C2C934202D2104AC2F88E
:103D70000C3C0F4BD3F8143C0B436B6000232B60BF
:103D8000FFF7E2FC16F0070F10D04FF0500383F35B
:103D90001188BFF36F8FBFF34F8FFEE70026EFE769
:103DA0000026EDE70026EBE70026E9E7304670BD88
:103DB000C801002098B338B50446A0F1080550F8B2
:103DC000042C1749D1F8141C0A4208D14FF05003B3
:103DD00083F31188BFF36F8FBFF34F8FFEE750F867
:103DE000080C40B14FF0500383F31188BFF36F8F7D
:103DF000BFF34F8FFEE722EA010244F8042CFFF7DD
:103E000013FC54F8041C064AD2F8103C0B44C2F8C8
:103E1000103C2846FFF71CFFFFF796FC38BD7047A3
:103E2000C801002000B585B00023019302930393DD
:103E30001048114A02608360C36043614FF46022FE
:103E4000C261436001230361FDF794FB60B9012364
:103E5000019302930023039301A90648FDF7C8FAD2
:103E600028B905B05DF804FB00F024FDEFE700F091
:103E700021FDF6E7440F00200024014000B585B085
:103E800000230193029303931148124A0260836056
:103E9000C36043614FF46022C26143600123036148
:103EA000FDF768FB68B90223019301230293002305
:103EB000039301A90648FDF79BFA28B905B05DF800
:103EC00004FB00F0F7FCEEE700F0F4FCF6E700BFBF
:103ED000140F00200028014000B589B0002304938E
:103EE0000593069307930368204A934205D0204A1E
:103EF00093421ED009B05DF804FB1E4B9A6942F450
:103F000000729A619A6902F400720092009A9A69AA
:103F100042F004029A619B6903F004030193019B40
:103F2000022304930323059304A91348FDF706FC19
:103F3000E0E7104B9A6942F480629A619A6902F450
:103F400080620292029A9A6942F004029A619B6925
:103F500003F004030393039B0423049303230593B7
:103F600004A90548FDF7EAFBC4E700BF00240140AF
:103F7000002801400010024000080140000000003D
:103F800008B51149FCF782FFFCF746FA0AA3D3E90A
:103F9000002301F01FF802460B4600200B49FCF7F6
:103FA000DBF807A3D3E90023FCF78EFAFCF75CFDEE
:103FB00008BD00BFAFF30080EBE2361AC05BC83F1C
:103FC0000000000040A5E54080E6C5470000F03F46
:103FD00000B583B00DF1070302467721034800F0D6
:103FE0006BFB9DF8070003B05DF804FBCC0F0020CD
:103FF00000B583B001AB02467721054800F077FB9E
:104000009DF805009DF80630184303B05DF804FBE9
:10401000CC0F002008B5FFF7EBFF030A43EA0020AE
:1040200080B208BD08B5FFF7F5FF00B208BD00007B
:1040300000B585B003AB00930323024677210948FE
:1040400000F016FB9DF80C309DF80D00000440EACE
:1040500003609DF80E3040EA0320000A05B05DF8C9
:1040600004FB00BFCC0F002000B585B0FA20FFF79D
:10407000DFFF0190019B1B110193019814490B88EC
:104080005A00C2EBE000B1F9022002FB00F2D212AA
:104090000392019AC3EB22120198C3EB201303FB96
:1040A00002F31B13B1F9042002FB03F39B130293E9
:1040B0000398029B1844886000EB80008030001257
:1040C000FCF7DCFD0349FCF7E1FE05B05DF804FBFD
:1040D000E00D00200000C8422DE9F84FFFF7C4FFB3
:1040E000F720FFF7A5FF4FEA201EDFF8D8C1DCF864
:1040F0000820D317B2F5FA3A43F1FF3B0AFB0BF164
:10410000AAFB0A4505EB4105BCF90C804FEAE879AA
:1041100004FB09F108FB0511A4FB08898944BCF9DB
:104120000E00C11700FB0BF60AFB0166A0FB0A019B
:1041300031444F0447EAD037460416EB080247EBF8
:104140000903BCF9108000204FEAC801161843EBA0
:104150000107BCF91220D31704FB03F102FB051180
:10416000A4FB02450D444FEA142848EA05684FEACB
:104170002529BCF91410CA1701FB0BF30AFB023501
:10418000A1FB0A232B441D0345EA1255140318EB27
:10419000040049EB050110F1000841F50049BCF8A5
:1041A0001620A8FB024502FB09556A10EB1752EADC
:1041B000030100F08480CEF5801E4FEA6E014FEAC5
:1041C000CE70801B61EB070180468946041841EBE5
:1041D000010514EB000A45EB010B4FEA8B1141EA94
:1041E0009A614FEA8A101AEB00064BEB0107B900FF
:1041F00041EA9671B00010EB080441EB0905A900F3
:1042000041EA9471A00010EB080041EB0901FCF7B2
:10421000D9FE82468B462B4EB6F91840E517420B65
:1042200042EAC1424B1304FB03F702FB0577A4FBF0
:104230000201394402FB01F503FB0055A2FB0023F8
:104240002B44540E44EAC3145D16B6F91A804FEAA3
:10425000E87908FB0BF30AFB0933A8FB0A899944A8
:104260004FEAD84242EA49324FEAE9431AEB0400E6
:104270004BEB0501841841EB0305270A47EA056764
:104280004FEA2528B6F91C40E517290141EA1471C7
:1042900020013A1848EB010314461D46002A73F129
:1042A000000107DB200A40EA05602912FCF7FCFC4C
:1042B000BDE8F88F12F1FF0443F10005F2E700209A
:1042C000F6E700BFE00D002008B50B460246772157
:1042D000014800F033FA08BDCC0F002010B5D02003
:1042E000FFF776FE582801D0002010BD8820FFF788
:1042F00091FE1C4C20808A20FFF794FE60808C2069
:10430000FFF790FEA0808E20FFF784FEE0829020D1
:10431000FFF788FEA0829220FFF784FE608294203F
:10432000FFF780FE20829620FFF77CFEE081982038
:10433000FFF778FEA0819A20FFF774FEA0839C20EF
:10434000FFF770FE60839E20FFF76CFE2083002144
:10435000F520FFF7B9FF3F21F420FFF7B5FF01205B
:10436000C3E700BFE00D002030B595B000215E48E6
:10437000FEF7D4FD5D4C04212046FEF7CFFD0C2155
:104380002046FEF7CBFD0C215948FEF7C7FD00F093
:1043900045FBFFF7A3FF8DF84F004FF4487494E0FE
:1043A00000240DF12A0304930AAB03930DF12603B5
:1043B000029309AB01930DF12203009308AB0DF1B9
:1043C0001E0207A90DF11A0000F0CEFABDF81A007E
:1043D00000B2BDF81A301AB2BDF81C3019B2BDF8DF
:1043E0001C301BB203FB01F302FB0033BDF81E209F
:1043F00012B2BDF81E0000B200FB0230FBF7FAFF5C
:1044000000F082FF00223B4BFCF788F9CDE90E015A
:10441000BDF8200000B2BDF820301AB2BDF822303D
:1044200019B2BDF822301BB203FB01F302FB0033CB
:10443000BDF8242012B2BDF8240000B200FB023007
:10444000FBF7D8FF00F060FF00222B4BFCF766F96A
:10445000CDE91001DDE90E2321A1D1E90001FBF72F
:104460007BFE214B1D68FCF7DFFA6863DDE90E2354
:104470001BA1D1E90001FBF76FFE1C4B1D68FCF787
:10448000D3FAA863DDE9102315A1D1E90001FBF7F8
:1044900063FEFCF7C9FA2864DDE9102310A1D1E915
:1044A0000001FBF759FE124B1D68FCF7BDFA2864AA
:1044B000FFF7DAFD0B90FFF70FFE0C900C98FFF75B
:1044C0005FFD0D900120FEF7C8FE40F2E7339C42ED
:1044D0003FF466AF0134A4B263E700BFAFF30080DE
:1044E0000000000000688F40F8100020B810002085
:1044F000781000200000594000408F4030B587B050
:1045000001AC064D0FCD0FC42B682360002101A81C
:10451000FEF789FE024B186007B030BDE462000868
:10452000740F002000B589B00023069303F1804387
:1045300003F504339A6942F020029A619A6902F005
:1045400020020192019A9A6942F004029A619A69E2
:1045500002F004020292029A9A6942F008029A61F9
:104560009B6903F008030393039B4FF48073049348
:1045700002230593079304A90248FDF7DFF809B069
:104580005DF804FB0008014008B50B480B4B0360C5
:104590000B4B436000238360C3604FF48042026191
:1045A00043618361C3610362FDF7AEFB00B908BDDF
:1045B00000F080F9FBE700BFCC0F0020005800405E
:1045C000A086010010B588B00023049305930693DC
:1045D00007930368224A934204D0224A93421FD091
:1045E00008B010BD204CA36943F00803A361A36980
:1045F00003F008030093009BC02304931223059348
:104600000323079304A91948FDF798F8E36943F4D5
:104610000013E361E36903F400130193019BDFE7F7
:10462000114CA36943F00803A361A36903F00803D5
:104630000293029B4FF440630493122305930323D8
:10464000079304A90948FDF779F8E36943F4800367
:10465000E361E36903F480030393039BC0E700BFB6
:10466000005400400058004000100240000C01407F
:10467000F0B585B007461C4604AD05F8012D4E0087
:104680004FF0FF33009301232A463146FDF7F0FB3C
:10469000034618B16BB960B205B0F0BD4FF0FF33FF
:1046A000009323460A9A31463846FDF7A3FC034699
:1046B000F0E74FF0FF30EFE700B583B00093012340
:1046C000FFF7D6FF03B05DF804FB30B583B01C469E
:1046D0005D00069B009305F0FE03FFF7C9FF8542CE
:1046E00002D160B203B030BD4FF0FF30FAE700B541
:1046F00083B000930123FFF7E8FF03B05DF804FBEC
:1047000070B582B0069E0C4C2270002204E0541C4E
:10471000B55C094A1555E2B29A42F8D34FF0FF3220
:1047200000920133044A4900FDF7A2FB10B10020BA
:1047300002B070BD0120FBE7000E002010B584B070
:1047400004AC04F8013D00940123FFF7D9FF04B045
:1047500010BD2DE9F04182B004460D4616461F46B5
:104760009DF820800DF10703FFF7A6FFB8F1000FB9
:1047700010D1012303FA07F29DF8073023EA020360
:104780008DF80730324629462046FFF7D7FF02B0A2
:10479000BDE8F081012303FA07F29DF807301343C7
:1047A000DBB2EDE72DE9F04182B005460E46174633
:1047B0001C469DF820800DF10703FFF77DFF18B917
:1047C000002002B0BDE8F081012202FA08F2013AAD
:1047D000A4EB08040134A2409DF82430A340DBB2CE
:1047E00013409DF8071021EA020213438DF80730A9
:1047F0003A4631462846FFF7A1FFE2E770B594B08C
:1048000000240C940D940F9410940594069407942E
:1048100008940994019402940394049401250A9540
:104820004FF480330B930E950226119612934FF49A
:10483000802313930AA8FDF7D9FD0F23059306964D
:1048400007944FF4806308930994294605A8FEF75E
:104850001FF8122301934FF4804303934FF4800316
:10486000049301A8FEF708F922464FF08061204624
:10487000FDF7AAFF14B070BD08B5FCF781FDFFF786
:10488000BDFFFFF74FFEFFF7CDFAFFF7F7FAFFF78F
:104890007BFE00F0D1F800F023FA00F061FA00F09E
:1048A000ABFA00F0EBFA00F03FFBFFF727FEFEF754
:1048B000B5FCFEE77047000000B583B0019002230D
:1048C000009304231B2268210248FFF76BFF03B00B
:1048D0005DF804FBCC0F002000B583B001900223EB
:1048E000009304231C2268210248FFF75BFF03B0FA
:1048F0005DF804FBCC0F00202DE9F04182B080462A
:104900000F4616461D46164C00940E233B22682186
:104910001448FFF7ADFE2278637843EA0223A8F833
:104920000030A278E37843EA02233B80227963795E
:1049300043EA02233380227A637A43EA02232B80FC
:10494000A27AE37A43EA0223089A1380227B637BEC
:1049500043EA0223099A138002B0BDE8F08100BF48
:10496000000F0020CC0F002030B583B0079C0194CD
:10497000069C0094FFF7C0FF174D022337226821E1
:104980002846FFF7DBFE0A20FCF71EFD01230A2262
:104990000C212846FFF7D2FE0A20FCF715FD0F4C2C
:1049A0000094062303220C212846FFF761FE62785B
:1049B000237843EA0223089A1380E278A37843EA33
:1049C0000223099A13806279237943EA02230A9A1F
:1049D000138003B030BD00BFCC0F0020000F0020BB
:1049E00000B583B0009006236B2268210248FFF7D0
:1049F000B0FE03B05DF804FBCC0F002000B583B01F
:104A000001900323009302236B2268210248FFF7E1
:104A1000C9FE03B05DF804FBCC0F002008B50120EF
:104A2000FFF7ECFF0020FFF747FF0020FFF754FFE0
:104A30000020FFF7D5FF08BD08B50E480E4B0360F8
:104A40004FF48273436000238360C360036143615A
:104A50004FF4802282613022C2610362436283622A
:104A60000A23C362FEF792F800B908BDFFF722FFE0
:104A7000FBE700BF201000200030014010B586B0D9
:104A8000002302930393049305930268164B9A4202
:104A900001D006B010BD03F560439A6942F480521C
:104AA0009A619A6902F480520092009A9A6942F0DF
:104AB00004029A619B6903F004030193019BB023F4
:104AC00002930223039303230593084C02A9204673
:104AD000FCF734FE4023029300230393049302A9BE
:104AE0002046FCF72BFED4E70030014000080140CF
:104AF00000B583B0104B9A6942F001029A619A693D
:104B000002F001020092009ADA6942F08052DA6102
:104B1000DB6903F080530193019B00220F216FF0AA
:104B20000100FCF7C1FD054A536823F0E0635360C0
:104B300003B05DF804FB00BF00100240000001401C
:104B40007047FEE7FEE7FEE7FEE7704708B5FCF7B3
:104B500029FCFEF78BFB08BD0F4B1A6842F00102DF
:104B60001A6059680D4A0A405A601A6822F0847225
:104B700022F480321A601A6822F480221A605A687D
:104B800022F4FE025A604FF41F029A60044B4FF069
:104B900000629A60704700BF001002400000FFF8FA
:104BA00000ED00E084B00368B3F1804F07D0154AF0
:104BB000934210D0144A934218D004B0704703F5C2
:104BC0000433DA6942F00102DA61DB6903F00103C0
:104BD0000193019BF1E70D4BDA6942F00202DA61C1
:104BE000DB6903F002030293029BE6E7074BDA69F5
:104BF00042F00402DA61DB6903F004030393039BD0
:104C0000DBE700BF00040040000800400010024045
:104C100000B589B0002304930593069307930368B6
:104C2000B3F1804F08D0284A93421AD0274A9342C2
:104C300034D009B05DF804FB03F504339A6942F0FF
:104C400004029A619B6903F004030193019B012311
:104C5000049302230593079304A91D48FCF76EFDF6
:104C6000E7E71C4B9A6942F008029A619B6903F0DE
:104C700008030293029B22230493022305930793C4
:104C800004A91548FCF75AFD144A536823F44063FD
:104C900043F0E06343F400635360CAE70D4B9A6945
:104CA00042F008029A619B6903F008030393039B97
:104CB0004FF40073049302230593079304A9064855
:104CC000FCF73CFDB5E700BF0004004000080040D1
:104CD0000008014000100240000C014000000140AB
:104CE00000B58BB0002308930993019302930393BB
:104CF000049305930693079318484FF0804202608F
:104D00002F224260836040F2E732C2600361836118
:104D1000FEF73CF8C0B900230893099308A90F488F
:104D2000FEF714F998B960230193002202920392CE
:104D3000059201A90948FEF775F858B90748FFF729
:104D400067FF0BB05DF804FBFFF7B4FDE3E7FFF787
:104D5000B1FDE8E7FFF7AEFDF0E700BFF810002077
:104D600000B58BB00023089309930193029303933A
:104D700004930593069307931D481E4A02602F2251
:104D80004260836040F2E732C26003618361FDF7F5
:104D9000FDFF00BB00230893099308A91448FEF700
:104DA000D5F8D8B9602301930023029303930593A8
:104DB00004220DEB02010E48FEF734F888B90C22EC
:104DC00001A90B48FEF72EF870B90948FFF720FF3C
:104DD0000BB05DF804FBFFF76DFDDBE7FFF76AFD45
:104DE000E0E7FFF767FDEAE7FFF764FDEDE700BFE7
:104DF000B81000200004004000B58BB000230893D9
:104E000009930193029303930493059306930793E5
:104E10001848194A02602F224260836040F2E7324C
:104E2000C26003618361FDF7B1FFC8B90023089335
:104E3000099308A90F48FEF789F8A0B960230193E8
:104E400000230293039305930C2201A90948FDF75F
:104E5000E9FF58B90748FFF7DBFE0BB05DF804FB2C
:104E6000FFF728FDE2E7FFF725FDE7E7FFF722FD63
:104E7000F0E700BF781000200008004008B50A489D
:104E80000A4B03604FF4E133436000238360C36047
:104E900003610C2242618361C361FEF757F900B9D7
:104EA00008BDFFF707FDFBE738110020003801407F
:104EB00010B586B000230293039304930593026810
:104EC000174B9A4201D006B010BD03F558439A69BA
:104ED00042F480429A619A6902F480420092009AF8
:104EE0009A6942F004029A619B6903F004030193FA
:104EF000019B4FF400730293022303930323059352
:104F0000084C02A92046FCF719FC4FF48063029379
:104F100000230393049302A92046FCF70FFCD2E779
:104F2000003801400008014008B50A480A4B0360F8
:104F300008234360022383600323C360002383614B
:104F4000C3610362FDF7D0F900B908BDFFF7B2FCF9
:104F5000FBE700BF78110020005C00400268094BAD
:104F60009A4200D0704782B003F5DA33DA6942F42E
:104F70000002DA61DB6903F400030193019B02B0D4
:104F8000704700BF005C0040002103E00B4B5B5802
:104F9000435004310A480B4B42189A42F6D30A4A4E
:104FA00002E0002342F8043B084B9A42F9D3FFF792
:104FB000D3FD01F05DF9FFF75FFC70475063000817
:104FC000000000207800002078000020D815002084
:104FD000FEE700002DE9F04F8DB006460F4614465F
:104FE0001D4600F0F1F9DFF81493CDE9000199F9BD
:104FF0000080B8F1FF3F36D022462B462046294696
:10500000FBF7FCFC834670BB32463B4630463946D4
:10501000FBF7F4FC8246002840F0AD80304639466C
:1050200000220023FBF7B8FC10B300220023204627
:105030002946FBF7B1FC8346002869D001220020F5
:105040000021A94BCDF828A0CDE90467CDE906459C
:10505000CDE90801CDE90223B8F1000F42D00023C9
:10506000A24CCDE90034DDE900010DB0BDE8F08FC0
:10507000DDE9000100F0E0FF8046002800F09880A4
:10508000DDE900014FF0000A4FF0000B52465B468D
:10509000FBF782FC0028E6D03046394600F0CCFF12
:1050A0000028E0D02046294600F0C6FF0028DAD0CC
:1050B0000420002199F900308B4A022BCDE90467C6
:1050C000CDE90645CDE908AB02900A91039204D0E0
:1050D00002A800F0B7FF002842D101F0C3F8222354
:1050E00003603DE002A800F0ADFF002800F0B380AF
:1050F0000A9B002B3AD001F0B5F8DDE90834CDE980
:1051000000340A9B0360DDE900010DB0BDE8F08FBB
:105110002046294600F090FF0028A4D0002200235A
:1051200020462946FBF742FC00289CD001216E4A0C
:1051300099F90030CDF828B0CDE90467CDE90645EE
:10514000CDE90212002B00F08B8000206849022B71
:10515000CDE9080140F0888001F084F82123036044
:105160000A9B1BB101F07EF80A9B0360DDE908345D
:10517000CDE9003477E70022002320462946FBF7DB
:105180000BFC00283FF46FAF01200022574B56491B
:10519000B8F1020FCDF828B0CDE90467CDE9064596
:1051A0000290CDE9082303919CD1CDE900235AE771
:1051B0003046394600F040FF00283FF461AF2046FA
:1051C000294600F039FF00283FF45AAFDDE90023FB
:1051D00010461946FBF712FC99F900A0002868D187
:1051E0000323DFF804C10A902946204602930022D7
:1051F000404BCDE90645CDE90467CDF80CC0FBF77F
:1052000063F904460D46BAF1000F34D14FF0604AFD
:10521000DFF8ECB00022002330463946CDE908AB78
:10522000FBF7C4FB00283FF453AF2046294600F0AB
:1052300011FF22462B46FBF7AFFB002836D14FF07B
:1052400060422D4B99F900A0CDE90823BAF1020F75
:105250003FF443AF3CE701F005F82123036047E743
:1052600000230024CDE9083402A800F0EBFE00285A
:105270007FF476AF70E74FF0000BDFF888C00022B4
:10528000002330463946CDE908BCFBF78FFB0028E8
:10529000DCD02046294600F0DDFE22462B46FBF7F7
:1052A0007BFB18B90022124BCDE9082399F900A025
:1052B000CCE701220C4BCDF82880CDE90467CDE97D
:1052C0000645CDE90223BAF1000FC9D00022002320
:1052D00010461946FBF722FABAF1020FCDE9080190
:1052E0003FF43AAFC0E700BF246300080000F03F7E
:1052F0000000F0FF0000E03FFFFFEFC710000020BC
:10530000FFFFEF470000F07F2DE9F04F8BB0044620
:105310000D4600F0CBFD294B064693F900A00F4641
:10532000BAF1FF3F12D022462B4620462946FBF712
:1053300065FB834650B94FF000084FF00009204646
:10534000294642464B46FBF731FB20B930463946E9
:105350000BB0BDE8F08F0122194BCDF820B0CDE99C
:105360000445CDE90245CDE90023BAF1000F17D07D
:1053700042464B4640464946FBF7D0F9BAF1020F88
:10538000CDE906010ED100F06DFF21230360089BDB
:1053900073B9DDE90667304639460BB0BDE8F08FDA
:1053A000CDE90689684600F04DFE0028EFD1EAE716
:1053B00000F058FF089B0360EBE700BF10000020DF
:1053C00028630008000000002DE9F04F23F000459D
:1053D00055EA020493B00DD0794E21F00044B44256
:1053E0000F4682460FDD04F1404404F5801454EA70
:1053F0000A035BD10023734CCDE90034DDE90001E1
:1054000013B0BDE8F08F984694464ED0B542EADC22
:105410006B4EB54266D0002F8B468146CDE9022304
:1054200064DB0026BCF1000F0ED1654B9D4246D0D7
:10543000644B9D4200F09780B8F1804F00F0B2803D
:10544000614B984500F0D2834846594600F0F0FD84
:10545000CDE90001BAF1000F06D1002C60D0594B04
:1054600027F040429A425BD0FF0F013F56EA070304
:1054700000F08280554B9D4240F3B08003F10473ED
:105480009D4240F34E84524B9C4240F38280B8F1DF
:10549000000F40F3828048A3D3E900231046194649
:1054A000FBF712F8CDE90001A8E728B1494813B08D
:1054B000BDE8F04F00F0C8BDA542F7DCA8E704F155
:1054C000404303F5801353EA0A0393D0404B9C42B8
:1054D00040F39683B8F1000F5FDBDDE90234CDE9DC
:1054E00000348BE7BCF1000F95D07CE73A4B9D422E
:1054F00037DCA3F154739D4293DD2B15A3F2FF33E8
:10550000142B40F3ED83C3F134032CFA03F202FAB7
:1055100003F3634585D102F00102C2F1020681E77F
:10552000B8F1000F07DADDE9002300202549FBF779
:10553000F5F8CDE90001002FBFF660AF04F140445B
:1055400004F5801454EA060300F04984012E7FF428
:1055500055AFDDE90045224605F10043CDE90023C2
:105560004CE702265EE7B8F1000FC0F255834846CB
:105570005946CDE9000141E74A4648465B4659464F
:10558000FAF7EAFD02460B46FBF7C8F8CDE9000141
:1055900034E7B8F1000FFFF67EAF00230024CDE919
:1055A00000342BE74A4648465B465946FAF78CFFDB
:1055B000CDE9000122E700BF9C7500883CE4377EFE
:1055C0000000F07F0000F03F0000E03F0000E041FD
:1055D000FFFFEF3F14630008FFFF3F43B4F5801F58
:1055E00080F29C83DDE900010022D14BFAF76CFFC9
:1055F0006FF0340C0C46CDE900012315CD4AC4F3FD
:105600001304A3F2FF3344F07F5503EB0C019442E3
:105610000D9145F4401540F37383C74B9C4240F312
:105620000084002300240022CDE90A34CDE910349F
:105630000024C24B0131CDE906230D91A5F580155B
:10564000DDE906ABDDE9000152465B4629468046AE
:10565000FAF782FD5246CDE908015B4640462946ED
:10566000CDE906ABFAF77AFD02460B460020B349B6
:10567000FBF754F80A4601461346CDE90E120246DE
:10568000DDE90801FAF720FF0A4683469446002325
:1056900001460020CDE900BC00936B1043F000539D
:1056A00003F50023CDE90412DDE900AB1919A94681
:1056B00004460D4602460B4650465946FAF704FF8B
:1056C00002460B46DDE90801FAF746FDDDE906234F
:1056D000CDE9080120462946FAF73EFD02460B4671
:1056E00040464946FAF738FD52465B46FAF7ECFE6B
:1056F00002460B46DDE90801FAF72EFDDDE90E232F
:10570000FAF7E2FEDDE90445CDE9060122462B4623
:1057100020462946FAF7D8FE73A3D3E900230446AE
:105720000D46FAF7D1FE72A3D3E90023FAF716FD6E
:1057300022462B46FAF7C8FE6FA3D3E90023FAF7F7
:105740000DFD22462B46FAF7BFFE6DA3D3E90023D9
:10575000FAF704FD22462B46FAF7B6FE6AA3D3E910
:105760000023FAF7FBFC22462B46FAF7ADFE68A3AE
:10577000D3E90023FAF7F2FC2246804689462B46FD
:1057800020462946FAF7A0FE02460B464046494607
:10579000FAF79AFE04460D46DDE9040152465B46DF
:1057A000FAF7DCFCDDE90623FAF78EFE22462B46EB
:1057B000FAF7D4FC5246804689465B465046594625
:1057C000FAF782FE00225E4BCDE90801FAF7C6FC2B
:1057D00042464B46FAF7C2FC00980D4604462B465B
:1057E000224650465946FAF76FFE002282468B4603
:1057F000534B20462946FAF7AFFCDDE90823FAF7B8
:10580000ABFC02460B4640464946FAF7A5FCDDE9EB
:105810000423FAF759FE224680468946DDE906014F
:105820002B46FAF751FE02460B4640464946FAF728
:1058300095FC8046894602460B4650465946FAF783
:105840008DFC35A3D3E9002300980D460446FAF7F2
:105850003BFE5246CDE904015B4620462946FAF755
:105860007BFC02460B4640464946FAF775FC2CA3E2
:10587000D3E90023FAF728FE2BA3D3E900238046BF
:10588000894620462946FAF71FFE02460B46404647
:105890004946FAF763FCDDE91023FAF75FFC80461E
:1058A0000D988946FAF7A6FD82468B46DDE904018C
:1058B00042464B46FAF752FCDDE90A23FAF74EFC62
:1058C00052465B46FAF74AFC009852465B4604464D
:1058D0000D46FAF741FCDDE90A23FAF73DFCDDE964
:1058E00004232FE0AFF30080EF4E454A287ECA3FE5
:1058F00065DBC9934A86CD3F01411DA96074D13F44
:105900004D268F515555D53FFFAB6FDBB66DDB3F55
:10591000033333333333E33F000000E009C7EE3F86
:10592000FD033ADC09C7EE3FF5015B14E02F3EBEF4
:10593000000040438E98030079B60B000000F03F52
:1059400000000840FAF708FC0B460246494640466C
:10595000FAF702FC0022013E56EA070314BFDA4BB5
:10596000DA4B8B46CDE90423DDE9021200230E4613
:105970001746CDE900670093DDE9006782463B46A4
:10598000084611463246FAF7E7FB22462B46FAF75D
:105990009BFDDDE902238046894650465946FAF7C9
:1059A00093FD02460B4640464946FAF7D7FB804630
:1059B000894632463B4620462946CDE90289FAF718
:1059C00083FD0B46024606460F4640464946FAF717
:1059D000C5FBBF4B044699420D468A4640F32681DB
:1059E00001F13F4303F5E003034340F0FE81A2A32E
:1059F000D3E90023DDE90201FAF7B0FB3246804625
:105A000089463B4620462946FAF7A6FB02460B4646
:105A100040464946FAF7E8FF002840F0E681A846EC
:105A20004FF4801300204FEA2852A2F2FE321341B5
:105A30005344C3F30A52A74DA2F2FF321541C3F3F8
:105A4000130423EA0501C2F1140B44F48014BAF1E3
:105A5000000F02460B4644FA0BFB30463946B8BFEE
:105A6000CBF1000BFAF778FB06460F46DDE90201A1
:105A700032463B46FAF772FB0D464FEA0B5A0024BA
:105A80007FA3D3E9002320462946FAF71DFD3246BD
:105A9000804689463B4620462946FAF75DFB02468A
:105AA0000B46DDE90201FAF757FB77A3D3E90023A0
:105AB000FAF70AFD76A3D3E9002306460F462046EF
:105AC0002946FAF701FD02460B4630463946FAF7F9
:105AD00045FB06460F4602460B4640464946FAF746
