:020000040800F2
:100000000050002025160008C1150008C31500087F
:10001000C5150008C7150008C91500080000000034
:10002000000000000000000000000000CB150008E8
:10003000CD15000800000000CF150008D1150008FC
:100040006D1600086D1600086D1600086D16000884
:100050006D1600086D1600086D1600086D16000874
:100060006D1600086D1600086D1600086D16000864
:100070006D1600086D1600086D1600086D16000854
:100080006D1600086D1600086D1600086D16000844
:100090006D1600086D1600086D1600086D16000834
:1000A0006D1600086D1600086D1600086D16000824
:1000B0006D1600086D1600086D1600086D16000814
:1000C0006D1600086D1600086D1600086D16000804
:1000D0006D1600086D1600086D1600086D160008F4
:1000E0006D1600086D1600086D160008000000006F
:1000F0000000000000000000000000000000000000
:0C01000000000000000000005FF808F1A3
:10010C0010B5054C237833B9044B13B10448AFF345
:10011C0000800123237010BD10000020000000009F
:10012C00C816000808B5034B1BB103490348AFF3CD
:10013C00008008BD0000000014000020C816000854
:10014C0010B504460E4B18784FF47A73B3FBF0F3EA
:10015C000C4A1068B0FBF3F000F094F868B90F2C5F
:10016C0001D901200AE0002221464FF0FF3000F0B7
:10017C0055F8034B5C60002000E0012010BD00BF6F
:10018C00000000200C00002008B5074A136843F05B
:10019C0010031360032000F02FF80020FFF7D0FFAE
:1001AC0001F0E6F9002008BD00200240034A116866
:1001BC00034B1B780B441360704700BF2C000020CE
:1001CC0000000020014B1868704700BF2C00002075
:1001DC0038B50446FFF7F6FF0546B4F1FF3F02D0F1
:1001EC00044B1B781C44FFF7EDFF401BA042FAD3D5
:1001FC0038BD00BF00000020074AD36823F4E06339
:10020C001B041B0C000200F4E060184340F0BF60BC
:10021C0040F40030D060704700ED00E030B4174B74
:10022C00DB68C3F30223C3F10704042C28BF0424A6
:10023C001D1D062D18D9033B4FF0FF3505FA04F4AC
:10024C0021EA0401994005FA03F322EA0303194356
:10025C0000280BDB0901C9B200F1604000F56140D8
:10026C0080F8001330BC70470023E5E700F00F0066
:10027C000901C9B2024B1954F4E700BF00ED00E0CC
:10028C0014ED00E00138B0F1807F0AD2064B5860C3
:10029C00064AF02182F823100020986007221A6089
:1002AC0070470120704700BF10E000E000ED00E057
:1002BC00F0B482B000263546A1E0002C59D0012CB8
:1002CC0000D1CE68FF2B68D88446FF2B68D8AC00D1
:1002DC00DCF800200F27A74022EA070206FA04F4F4
:1002EC002243CCF800204A6812F0805F00F0868030
:1002FC005E4A946944F001049461926902F001022F
:10030C000192019AAC08A71C594A52F8272005F013
:10031C000307BF004FF00F0C0CFA07FC22EA0C0C81
:10032C00544A904242D002F5806290427FD002F54E
:10033C00806290427DD002F58062904234D00422DB
:10034C0035E04D4FBC4214D00BD94C4FBC4210D0B1
:10035C0007F58037BC420CD0A7F58017BC42B1D151
:10036C0007E0A7F58017BC4203D007F58037BC42E5
:10037C00A8D18C687CB1012C08D042610826A1E779
:10038C00CE6808369EE7CE680C369BE702610826DD
:10039C0098E7002696E7042694E700F1040C94E70E
:1003AC00A5F10804A40093E7032200E00022BA4060
:1003BC0042EA0C0202342E4F47F824204A6812F409
:1003CC00803F38D02E4C22681A4322604A6812F4BF
:1003DC00003F36D02A4C62681A4362604A6812F4B5
:1003EC00801F34D0264CA2681A43A2604A6812F4CB
:1003FC00001F32D0224CE2681343E36001350F2D0D
:10040C0031D80122AA400B6813409A42F6D14C68AD
:10041C00122CB8D095D8022CB2D07FF64EAF032C4C
:10042C00B7D0112C7FF44EAFCE6804364AE70122C8
:10043C00BDE70222BBE7124C226822EA03022260CB
:10044C00C4E70F4C626822EA03026260C6E70C4CF8
:10045C00A26822EA0302A260C8E7094CE26822EA19
:10046C000303E360CAE702B0F0BC7047001002401F
:10047C000000014000080140000021100000311074
:10048C000004014012B90904016170470161704711
:10049C0082B0084B1B68084AA2FB03235B0A00FBD3
:1004AC0003F0019000BF019B5A1E0192002BF9D161
:1004BC0002B070470C000020D34D621070B582B0B2
:1004CC000446036813F0010F2CD0AB4B5B6803F0B0
:1004DC000C03042B1DD0A84B5B6803F00C03082BFA
:1004EC0012D06368B3F5803F41D0002B55D103F196
:1004FC00804303F504331A6822F480321A601A68B8
:10050C0022F480221A6037E09B4B5B6813F4803F27
:10051C00E7D0994B1B6813F4003F03D06368002BA2
:10052C0000F0AE81236813F0020F76D0924B5B681B
:10053C0013F00C0F5FD0904B5B6803F00C03082B8F
:10054C0054D02369002B00F08A808C4B01221A6056
:10055C00FFF738FE0546884B1B6813F0020F75D168
:10056C00FFF730FE401B0228F5D903208BE1824AAD
:10057C00136843F480331360636843B3FFF722FEC0
:10058C0005467D4B1B6813F4003FCBD1FFF71AFED9
:10059C00401B6428F5D9032075E1B3F5A02F09D0D1
:1005AC00754B1A6822F480321A601A6822F4802281
:1005BC001A60E1E703F18043A3F53C331A6842F477
:1005CC0080221A601A6842F480321A60D4E7FFF76E
:1005DC00F9FD0546684B1B6813F4003FA2D0FFF7EA
:1005EC00F1FD401B6428F5D903204CE1624B5B689C
:1005FC0013F4803FA5D1604B1B6813F0020F04D09D
:10060C002369012B01D001203DE15B4A136823F0E3
:10061C00F803616943EAC1031360236813F0080F00
:10062C0032D0A369002B5BD0554B01221A60FFF727
:10063C00C9FD0546504B5B6A13F0020F21D1FFF741
:10064C00C1FD401B0228F5D903201CE14A4A13685E
:10065C0023F0F803616943EAC1031360DDE7474BFC
:10066C0000221A60FFF7AEFD0546434B1B6813F0E2
:10067C00020FD2D0FFF7A6FD401B0228F5D90320AC
:10068C0001E10120FFF704FF236813F0040F00F0D1
:10069C009780394BDB6913F0805F33D1364BDA69C5
:1006AC0042F08052DA61DB6903F080530193019BC5
:1006BC000125344B1B6813F4807F25D0E368012B94
:1006CC0036D0002B4CD103F1804303F504331A6A66
:1006DC0022F001021A621A6A22F004021A622CE059
:1006EC00274B00221A60FFF76DFD0546224B5B6A13
:1006FC0013F0020FC8D0FFF765FD401B0228F5D997
:10070C000320C0E00025D4E71E4A136843F480732D
:10071C001360FFF757FD06461A4B1B6813F4807FD6
:10072C00CCD1FFF74FFD801B6428F5D90320AAE03C
:10073C00114A136A43F001031362E36873B3FFF7C2
:10074C0041FD06460C4B1B6A13F0020F37D1FFF725
:10075C0039FD801B41F288339842F3D9032092E093
:10076C00052B11D0044B1A6A22F001021A621A6A84
:10077C0022F004021A62E0E700100240000042423C
:10078C008004424200700040414B1A6A42F004025D
:10079C001A621A6A42F001021A62CEE7FFF712FDE2
:1007AC0006463B4B1B6A13F0020F08D0FFF70AFDFD
:1007BC00801B41F288339842F3D9032063E0E5B9FA
:1007CC00E369002B5ED0324A526802F00C02082A10
:1007DC005BD0022B17D02F4B00221A60FFF7F2FCD4
:1007EC0004462B4B1B6813F0007F47D0FFF7EAFC45
:1007FC00001B0228F5D9032045E0254AD36923F0D4
:10080C008053D361DCE7234B00221A60FFF7DAFC3C
:10081C0005461F4B1B6813F0007F06D0FFF7D2FC78
:10082C00401B0228F5D903202DE0236AB3F5803F45
:10083C001AD017494B6823F47413226A606A024376
:10084C0013434B60134B01221A60FFF7BBFC0446A9
:10085C000F4B1B6813F0007F0ED1FFF7B3FC001B8E
:10086C000228F5D903200EE0094A536823F400331B
:10087C00A1680B435360DCE7002004E0002002E099
:10088C00012000E0002002B070BD0120FBE700BF9A
:10089C00001002406000424210B487B0164C94E83D
:1008AC000F000DF1180C0CE90F00238AADF8043081
:1008BC00124B5B6803F00C02082A1AD1C3F3834273
:1008CC00624412F8102C13F4803F05D10C4800FB45
:1008DC0002F007B010BC7047084B5B68C3F3404391
:1008EC00634413F8143C074800FB02F0B0FBF3F030
:1008FC00EFE70448EDE700BFE016000800100240E7
:10090C0000093D0000127A00624B1B6803F00703DC
:10091C008B420CD25F4A136823F007030B4313601E
:10092C00136803F007038B4201D00120704770B5A8
:10093C00036813F0020F17D013F0040F04D0564ABB
:10094C00536843F4E0635360036813F0080F04D05A
:10095C00514A536843F4605353604F4A536823F031
:10096C00F0038468234353600D460446036813F078
:10097C00010F52D04368012B23D0022B28D0464ABA
:10098C00126812F0020F00F0828043494A6822F08C
:10099C00030213434B60FFF715FC06466368012BFB
:1009AC001DD0022B2AD03C4B5B6813F00C0F34D0BB
:1009BC00FFF708FC801B41F288339842F3D90320DF
:1009CC0064E0354A126812F4003FDED101205DE08C
:1009DC00314A126812F0007FD7D1012056E02E4B1D
:1009EC005B6803F00C03042B17D0FFF7EBFB801BA9
:1009FC0041F288339842F2D9032047E0264B5B68DA
:100A0C0003F00C03082B08D0FFF7DCFB801B41F232
:100A1C0088339842F2D9032038E01E4B1B6803F050
:100A2C000703AB420CD91B4A136823F007032B4373
:100A3C001360136803F00703AB4201D0012025E0DB
:100A4C00236813F0040F06D0134A536823F4E063B1
:100A5C00E1680B435360236813F0080F07D00E4A6C
:100A6C00536823F46053216943EAC1035360FFF7D1
:100A7C0013FF094B5B68C3F30313084AD35CD840DC
:100A8C00074B18600020FFF75BFB002070BD0120B6
:100A9C00FCE700BF00200240001002400C170008C9
:100AAC000C000020F8B505460F4616461C463BE0E8
:100ABC002CB1FFF787FB069BC01AA04234D32A68DF
:100ACC00536823F0E00353606B68B3F5827F0BD05F
:100ADC00AB6AB3F5005F14D0012385F851300023C5
:100AEC0085F85030032027E0AB68B3F5004F02D0F7
:100AFC00B3F5806FECD12A68136823F040031360C0
:100B0C00E6E72A68136823F400531B041B0C1360DC
:100B1C002A68136843F400531360DDE70123B342E2
:100B2C0009D0B4F1FF3FC3D12B689B6837EA0303AC
:100B3C00F4D00023F3E70020F8BD10B582B00446D2
:100B4C0000920B4600228021FFF7ACFF034610B940
:100B5C00184602B010BD636D43F020036365032398
:100B6C00F6E72DE9F04385B099460C9D90F850308E
:100B7C00012B00F0108104460F461646012380F825
:100B8C005030FFF71FFB804694F85130DBB262689F
:100B9C00012B15D0B2F5827F0AD00223012284F8F2
:100BAC005120002284F85020184605B0BDE8F0838F
:100BBC00A268002A40F0E780042B01D00223EDE765
:100BCC00002F00F0E280002E00F0E180B9F1000F60
:100BDC0000F0DF8094F85130DBB2012B2BD00023D6
:100BEC006365A663A4F83E90A4F83C902763A4F830
:100BFC003690A4F834902364636423681A6812F066
:100C0C00400F03D11A6842F040021A60E368B3F552
:100C1C00006F14D063681BB1E38E9BB2012B07D11C
:100C2C00236817F8012B1A73E38E013B9BB2E38602
:100C3C004FF0010961E0052384F85130CFE7636878
:100C4C001BB1E38E9BB2012B07D1236837F8022B23
:100C5C00DA60E38E013B9BB2E3864FF0010913E0AF
:100C6C00E38F9BB26BB123689A6812F0010F08D026
:100C7C00DB6826F8023BE38F013B9BB2E3874FF026
:100C8C000109B5F1FF3F1CD1E38E9BB21BB9E38F79
:100C9C009BB2002B55D0B9F1000FE1D0E38E9BB283
:100CAC00002BDDD023689A6812F0020FD8D037F8E9
:100CBC00022BDA60E38E013B9BB2E3864FF0000916
:100CCC00CEE7FFF77FFAA0EB0800A842DCD30323A2
:100CDC0064E7E38F9BB26BB123689A6812F0010F43
:100CEC0008D0DB683370E38F013B9BB2E38701369E
:100CFC004FF00109B5F1FF3F1BD1E38E9BB213B945
:100D0C00E38F9BB2EBB1B9F1000FE2D0E38E9BB253
:100D1C00002BDED023689A6812F0020FD9D03A78F3
:100D2C001A73E38E013B9BB2E38601374FF0000947
:100D3C00CFE7FFF747FAA0EB0800A842DDD3032367
:100D4C002CE7CDF800802B46012202212046FFF72C
:100D5C00A9FE08B1032321E7424629462046FFF7A6
:100D6C00ECFE034618B120236365012316E7A26845
:100D7C00002A7FF413AF03922268D1680391926822
:100D8C000392039A0AE7022308E7012306E70123EB
:100D9C0004E7012302E7022306E700283CD010B544
:100DAC0004460023836290F85130002B31D002238B
:100DBC0084F851302268136823F040031360636891
:100DCC00A2681343E2681343226913436269134315
:100DDC00A26902F400721343E2691343226A1343BB
:100DEC00A16A22680B431360638B03F00403616AEE
:100DFC0022680B4353602368E26A1A612268D36944
:100E0C0023F40063D36100206065012384F8513022
:100E1C0010BD00F073FBCAE70120704730B587B0F6
:100E2C0000240294039404940594144B9A6942F0A0
:100E3C0004029A619A6902F004020092009A9A697B
:100E4C0042F008029A619B6903F008030193019B2D
:100E5C000B4D22464FF4C0412846FFF713FB4FF4CD
:100E6C00C04302930123039304940223059302A924
:100E7C002846FFF71DFA07B030BD00BF0010024036
:100E8C00000C014010B590B02422002107A800F0FE
:100E9C000DFC002401940294039404940594022301
:100EAC00069301230A9310230B9306A8FFF706FB66
:100EBC000F2301930294039404940594214601A8F2
:100ECC00FFF722FD10B010BD10B58CB0FFF75CF928
:100EDC00FFF7D8FFFFF7A2FF00F0F0FA0A20FFF7A8
:100EEC0077F900F059FA554B93E803000A908DF806
:100EFC002C10FF2000F016FA732000F086F9202049
:100F0C0000F0D6F9002000F072F9052000F083F90A
:100F1C004B4B1B78002B5CD00AA9012000F082F906
:100F2C000E220021012000F0CFF9012000F051F930
:100F3C00022000F03DF900F017F98DF8270000238E
:100F4C008DF824303E4B1B78002B4FD13D4B01AC20
:100F5C000FCB07C424F8023B1B0C23709DF82430E4
:100F6C00DBB25A1CD2B28DF824208DF81030364CDE
:100F7C0000224FF400512046FFF784FA0E2101A8FD
:100F8C0000F05AFA01224FF400512046FFF77AFA8A
:100F9C0000F0DEF98DF826009DF8263013F0300FA6
:100FAC00F6D000224FF400512748FFF76BFA00F0FF
:100FBC00E7F900F0D9F99DF8263013F0100F32D173
:100FCC009DF8263013F0200F31D000238DF82530FA
:100FDC00B8E7002000F060F90AA9062000F022F919
:100FEC00002000F0F6F800F0CBF9A1E72022002158
:100FFC0001A800F05BFB01224FF400511248FFF7EF
:10100C0041FA00F0AAF90128FBD00DF1030101A867
:10101C0000F01AFA00F0B4F99DF824300133DBB279
:10102C008DF82430EDE7FF238DF825308AE700F0AA
:10103C009BF9FE238DF8253084E700BFF4160008D9
:10104C000800002024170008000C01407047000025
:10105C0038B504460D4600224FF480411148FFF785
:10106C0011FA1F2C0DD9204600F00CFA04F11F03C5
:10107C00DBB2022B0ED9FF2C0CD0284600F002FA62
:10108C0008E004F01F0040F0200000F0FBF92846B7
:10109C0000F0F8F901224FF480410248FFF7F2F911
:1010AC0038BD00BF000C0140F8B504460E4615468D
:1010BC0000224FF480410C48FFF7E4F9204600F081
:1010CC00E1F905E0771C307800F0DCF925463E4666
:1010DC006B1EDCB2002DF5D101224FF48041024889
:1010EC00FFF7D0F9F8BD00BF000C0140F8B504467D
:1010FC000E46154600224FF480410C48FFF7C2F90A
:10110C00204600F0BFF906E0771CFF2000F0BAF98A
:10111C00307025463E466B1EDCB2002DF4D1012208
:10112C004FF480410148FFF7ADF9F8BD000C0140C8
:10113C0038B505460B4C00224FF480412046FFF792
:10114C00A1F905F01F0000F09DF9FF2000F09AF9BD
:10115C00054601224FF480412046FFF793F92846BB
:10116C0038BD00BF000C014010B582B00F4C0522F9
:10117C0021463020FFF798FF052269461020FFF723
:10118C00B5FF21460023042B0BD802AA1A4412F8EF
:10119C00080C4C1C0A78904206D10133DBB2214674
:1011AC00F1E7012002B010BD0020FBE73417000866
:1011BC0010B504460020FFF7BBFF022C05D000F051
:1011CC00FD010020FFF744FF10BD40F00201C9B241
:1011DC00F7E710B504460020FFF7AAFF00F0FE0168
:1011EC0004F0010421430020FFF732FF10BD10B5BD
:1011FC0004460020FFF79CFF00F0F30104F00C0400
:10120C0021430020FFF724FF10BD08B5014605203F
:10121C00FFF71EFF08BD08B5811EC9B20320FFF7FA
:10122C0017FF08BD70B506460C46062828D8DFE81F
:10123C0000F004042828282804000320FFF778FF76
:10124C000130C5B22C4400224FF480411048FFF706
:10125C0019F9104B985D40F0200000F013F900E0F4
:10126C001D46661E207800F00DF96B1EDBB234466D
:10127C00002DF5D101224FF480410548FFF702F90A
:10128C0070BD0978034B185CFFF7E2FEF8E700BF6E
:10129C00000C0140FC16000810B504460620FFF7B0
:1012AC0047FF00F0F90121430620FFF7D1FE10BDE6
:1012BC0010B504460620FFF73BFF00F0D701214391
:1012CC000620FFF7C5FE10BD2DE9F04180460E4605
:1012DC0017460220FFF72CFF40B2012505FA08F152
:1012EC004CB240EA040101F03F010220FFF7B0FECE
:1012FC000B48404407F03F01007AFFF7A9FE28464F
:10130C00FFF716FFAE4207D020EA0401C9B2012054
:10131C00FFF79EFEBDE8F08144EA0001C9B2F6E792
:10132C00FC16000810B505280DD804460120FFF75F
:10133C00FFFE012303FA04F420EA0404E1B2184688
:10134C00FFF786FE10BD00210120FFF781FEF9E7B3
:10135C0008B50720FFF7ECFE08BD08B51720FFF70E
:10136C00E7FE00F0030008BD08B5FF21E120FFF700
:10137C006FFE08BD08B5FF21E220FFF769FE08BD2E
:10138C0008B50720FFF7D4FE40F07001C9B2072062
:10139C00FFF75EFE08BD000008B508210020FFF72E
:1013AC0057FE3F210120FFF753FE03210220FFF7D8
:1013BC004FFE03210846FFF74BFE03210420FFF7E5
:1013CC0047FE02210520FFF743FE0E210620FFF702
:1013DC003FFE00210720FFF73BFE00211120FFF705
:1013EC0037FE00211220FFF733FE00211320FFF7F8
:1013FC002FFE00211420FFF72BFE00211520FFF7F4
:10140C0027FE00211620FFF723FE00211C20FFF7EA
:10141C001FFE00211D20FFF71BFEFFF7ABFFFFF7A0
:10142C00A3FFFFF7ADFF01224FF480410148FFF706
:10143C0029F808BD000C014008B50A460146A02059
:10144C00FFF732FE08BD000070B506460D460720BA
:10145C00FFF76EFEC0F34204052C0CD8084B234456
:10146C00187AFFF765FE287040B1024631466120BC
:10147C00FFF73CFE02E000232B70FF24204670BDDA
:10148C00FC16000800B587B08DF80F000A4B1B68DE
:10149C009B6813F0020FF9D04FF0FF330093012338
:1014AC000DF117020DF10F010348FFF75AFB9DF8E0
:1014BC00170007B05DF804FB3000002008B50D489C
:1014CC000D4B03604FF48273436000238360C36051
:1014DC00036143614FF400728261C3610362436232
:1014EC0083620A23C362FFF758FC00B908BDFFF7FB
:1014FC00ADFDFBE7300000200030014010B586B098
:10150C00002302930393049305930268164B9A42AB
:10151C0001D006B010BD03F560439A6942F48052C5
:10152C009A619A6902F480520092009A9A6942F088
:10153C0004029A619B6903F004030193019BA023AD
:10154C0002930223039303230593084C02A920461C
:10155C00FEF7AEFE4023029300230393049302A9EB
:10156C002046FEF7A5FED4E70030014000080140FC
:10157C0082B00E4B9A6942F001029A619A6902F0AC
:10158C0001020092009ADA6942F08052DA61DB695A
:10159C0003F080530193019B054A536823F0E063E9
:1015AC0043F00073536002B0704700BF001002405C
:1015BC00000001407047FEE7FEE7FEE7FEE77047DC
:1015CC007047704708B5FEF7F1FD08BD0F4B1A6860
:1015DC0042F001021A6059680D4A0A405A601A68B2
:1015EC0022F0847222F480321A601A6822F480226B
:1015FC001A605A6822F4FE025A604FF41F029A6075
:10160C00044B4FF000629A60704700BF001002401C
:10161C000000FFF800ED00E0002103E00B4B5B58ED
:10162C00435004310A480B4B42189A42F6D30A4AEB
:10163C0002E0002342F8043B084B9A42F9D3FFF72F
:10164C00C5FF00F00FF8FFF73FFC70474417000888
:10165C000000002010000020100000208800002056
:10166C00FEE7000070B500250C4E0D4CA41BA41019
:10167C00A54209D100F022F800250A4E0A4CA41B01
:10168C00A410A54205D170BD56F8253098470135F8
:10169C00EEE756F8253098470135F2E73C1700087D
:1016AC003C1700083C17000840170008034602448A
:1016BC00934200D1704703F8011BF9E7F8B500BF5E
:1016CC00F8BC08BC9E467047F8B500BFF8BC08BC17
:0416DC009E4670476F
:1016E00002030405060708090A0B0C0D0E0F101063
:1016F000010200006E524632340000000A0B0C0D4D
:101700000E0F100011121314151600000000000037
:1017100000000000010203040607080900000000A1
:101720000102030448656C6C6F20576F726C642172
:0C173000200A00006E5246323400000017
:04173C00310100086F
:041740000D0100088F
:1017440001000000100000000100000000A24A0493
:0400000508001625B4
:00000001FF
